:020000040800F2
:10000000D0BA012009F30008D1F00008D3F00008AD
:10001000D5F00008D7F00008D9F000080000000073
:10002000000000000000000000000000C5B700084C
:10003000DBF00008000000006DB7000851740008F4
:1000400029F300082DF3000831F3000835F3000808
:1000500039F300083DF3000841F3000845F30008B8
:1000600049F300084DF3000851F30008EFF00008D1
:1000700055F3000859F300085DF3000861F3000828
:1000800065F3000869F300086DF3000871F30008D8
:1000900075F3000879F300087DF300081DF10008EE
:1000A00081F3000885F3000889F300088DF3000848
:1000B000DDF0000891F3000895F3000899F30008BB
:1000C0009DF30008A1F30008A5F30008A9F30008B8
:1000D000ADF30008B1F30008B5F30008B9F3000868
:1000E000BDF30008C1F3000800000000C5F30008DC
:1000F000C9F30008CDF30008D1F30008D5F30008D8
:10010000D9F30008DDF30008E1F30008E5F3000887
:10011000E9F30008EDF30008F1F30008F5F000083A
:10012000F5F30008F9F30008FDF3000801F40008F6
:1001300005F4000809F400080DF4000811F40008A3
:1001400000000000000000000000000000000000AF
:1001500015F4000819F400081DF4000821F4000843
:1001600025F4000829F400082DF4000831F40008F3
:1001700035F40008E3F0000839F40008000000003E
:100180003DF4000841F4000845F4000849F4000873
:10019000FBF000084DF4000851F4000855F4000885
:1001A00059F400085DF4000861F4000865F40008E3
:1001B00069F400086DF4000871F4000875F4000893
:1001C00079F400087DF4000881F4000885F4000843
:1001D00089F40008E9F000088DF4000891F40008A3
:1001E00095F4000899F400089DF40008A1F40008B3
:1001F000A5F40008A9F40008ADF40008B1F4000863
:10020000B5F40008B9F40008BDF40008C1F4000812
:10021000C5F40008C9F40008CDF40008D1F40008C2
:10022000D5F40008D9F40008DDF40008000000004F
:10023000E1F40008E5F4000800000000E9F400081B
:10024000EDF40008F1F40008F5F40008F9F40008F2
:10025000FDF4000801F5000805F5000809F500089F
:100260000DF5000811F5000815F5000819F500084E
:100270001DF5000821F5000825F500080000000024
:1002800029F500082DF5000831F5000800000000F0
:100290000000000035F500082DE9F84F044601F094
:1002A00065FA002C00F03D812168DFF850A604F1CA
:1002B0003407DFF85456DFF85466DFF85CB6DFF831
:1002C0005C86DFF85C96514518BF49452BD0414507
:1002D00018BF594527D0B14218BFA94223D0DFF833
:1002E000442691421CBFDFF8403699421BD001F0F2
:1002F00063F81CBFDFF83426914214D000F03EFBB7
:100300001CBFDFF82C3699420DD000F033FB1CBF28
:10031000DFF82026914206D000F06FFC1CBFDFF80A
:10032000182691424BD1022200237A7051453B702E
:1003300018BF49452BD0414518BF594527D0B14278
:1003400018BFA94223D0DFF8DC2591421CBFDFF89B
:10035000D82591421BD000F04DFC1CBFDFF8CC2506
:10036000914214D000F00AFB1CBFDFF8C43599425B
:100370000DD000F0FFFA1CBFDFF8B825914206D07F
:1003800000F03BFC1CBFDFF8B025914248D1D1F80A
:1003900000E04FEA5E024FEA420EC1F800E0009032
:1003A00023681A68D00742D501F0E0F90099401A95
:1003B0000628F5D32020032338627B70B1E0DFF8F4
:1003C0007C2591421CBFDFF87805814218D0DFF808
:1003D000743599421CBFDFF87025914210D0DFF8C8
:1003E0006C0581421CBFDFF86835994208D0DFF800
:1003F000642591421CBFDFF86005814240F08D808A
:10040000022300217B7039702268D2F800C0A068F6
:1004100040286FF3101C40F086804CF0100C86E0F2
:100420000B461A461968490849001160B7E7D3F826
:1004300000C0A168DFF82405E26800EA0C00084368
:1004400042EA00012069A26908436169084342EA5F
:100450000001E069626A0843216A0143042A03D16A
:10046000E06A0843216B0143DFF8F424D2F800C0AE
:100470004FEA1C400004B0F1005F11D36068A0F1A6
:100480002902062A24BFA0F13F02042A06D3A0F1C4
:100490004702022A24BF4F38042801D241F48011B8
:1004A00019602268D2F814E0606A04284FEADE017D
:1004B00040EAC10E0BD1A36AE06A43EA0E0E30B1E6
:1004C000A16989B9002B18BF022B1FD016D3C2F81F
:1004D00014E0204601F040F897F828103F2201F080
:1004E0001F018A40826046E0B1F5005F0AD1032B0C
:1004F000EDD8DFE803F00D0B0D03E8E7B0F1C07FA6
:10050000E5D105E0022B03D9DB1EE0D1C001DED529
:100510004021012239620120A4E0402003213862F9
:10052000797001209FE0802808BF4CF4804CE3687C
:1005300020696169A2690343E0690B43216A13439F
:10054000142203434CEAD300236840EA111CDFF86D
:100550001404C3F800C0216841182046B1FBF2F230
:100560009200BA6200F0F8FF97F82820012102F00B
:100570001F02914041602068504518BF48454ED049
:10058000404518BF58454AD0B04218BFA84246D08F
:10059000DFF8901388421CBFDFF88C3398423ED0BE
:1005A000DFF8C453A8421CBFDFF88023904236D046
:1005B000DFF8B81388421CBFDFF8743398422ED09E
:1005C00000F022FB1CBFDFF86C53A84227D0DFF8F5
:1005D000A01388421CBFDFF8602390421FD0DFF8D1
:1005E0005C3398421CBFDFF85813884217D0DFF8FD
:1005F000542390421CBFDFF8503398420FD0DFF8ED
:100600004C1388421CBFDFF84823904207D0DFF824
:10061000443398421CBFDFF8401388421FD1204664
:1006200000F0FCFFA068802804BF00216160F96A27
:1006300020790860386B7A6B4260606858B109288D
:1006400009D2204601F034F8B86B00210160F96B43
:100650003A6C4A6003E00020B863F8633864002015
:10066000012238627A70BDE8F28F2DE9F84F04005C
:100670004FF0000A08BF012005D004F134052E78A0
:10068000012E08BF022000F032810120287095F869
:1006900001B0BBF1010F40F02281022600206E70F4
:1006A000DFF85892286220689B4EDFF870B2DFF8BE
:1006B0007082484518BF404528D0584518BFB04201
:1006C00024D0924FB8421CBF8F4FB8421ED0954FD6
:1006D000B8421CBF944FB84218D0A34FB8421CBFB9
:1006E000924FB84212D0A14FB8421CBF904FB842AF
:1006F0000CD0DFF89072B8421CBF8E4FB84205D0C4
:100700009B4FB8421CBF8C4FB84207D1276838684E
:1007100040084000BE46CEF8000008E02068D0F84F
:1007200000C04FEA5C074FEA470CC0F800C0204603
:1007300000F048FE2068484518BF404527D058457E
:1007400018BFB04223D0714A90421CBF6E49884204
:100750001DD0744B98421CBF734A904217D08249F7
:1007600088421CBF714B984211D000F0D1F81CBFD9
:100770006F4988420BD000F0BCF81CBF6D4B98420B
:1007800005D000F0BDF81CBF6B4988420DD123682D
:100790000B20196860F344011A461160E86890B1B3
:1007A0002068016841F008010CE023680520196801
:1007B00060F343011A461160E86820B120680168BF
:1007C00041F00401016027686749574A554BDFF83B
:1007D00038C1DFF838E14F4518BF47453BD05F458A
:1007E00018BFB74237D0774518BF674533D09F420F
:1007F00018BF97422FD08F421CBF4C4887422AD047
:100800005A4887421CBF4A48874224D0DFF8740107
:1008100087421CBF474887421DD0554887421CBFAE
:100820004548874217D0454887421CBF4448874205
:1008300011D0444887421CBF434887420BD04348ED
:1008400087421CBF4248874205D0424887421CBFAE
:10085000414887420DD1E86A0768FF0303D507685E
:1008600047F480770760A86B18B1076847F4807772
:1008700007602068484518BF404523D0584518BF39
:10088000B0421FD0704518BF60451BD0984218BFBA
:10089000904217D088421CBF2449884212D000F0F1
:1008A00037F81CBF224B98420CD0DFF8D850A84232
:1008B0001CBF2049884205D000F022F81CBF1E4B07
:1008C000984205D10168024641F0010111600DE036
:1008D00003461946186840F00100086006E04FF42E
:1008E00000622A6285F800A04FF0010A5046BDE878
:1008F000F28FDFF89010884270470000100002402D
:100900001B4A90427047000088000240700002407D
:10091000164A9042704700005800024040000240D2
:1009200028000240A0000240B80002402804024013
:100930005804024088040240B80402400854025897
:100940001C54025830540258445402585854025807
:100950006C54025880540258945402583F8010FE40
:100960000010005CF8ABFDA71004024040040240F8
:10097000A0040240DFF8E82291427047DFF8DC2251
:1009800091427047700402402DE9F84F30B100F1F8
:1009900034025178022903D080201062012025E121
:1009A0000768DFF85C92DFF88412DFF87C32DFF84A
:1009B0007442DFF86C52DFF864A2DFF85CB2DFF853
:1009C00044C2DFF84CE2DFF84C824F4518BF474580
:1009D00027D0774518BF674523D05F4518BF5745D7
:1009E0001FD0AF4218BFA7421BD09F4218BF8F42F3
:1009F00017D0DFF86862B7421CBFDFF83462B74235
:100A00000FD0DFF85C62B7421CBFDFF82862B74244
:100A100007D0DFF82462B7421CBFDFF82062B7427C
:100A200031D104264F45567018BF474527D077452A
:100A300018BF674523D05F4518BF57451FD0AF4249
:100A400018BFA7421BD09F4218BF8F4217D0DFF8B4
:100A50000C128F421CBFDFF8D8319F420FD0DFF855
:100A6000002297421CBFDFF8CC118F4207D0DFF87D
:100A7000C8319F421CBFDFF8C42197423BD13C469E
:100A8000204621683AE03E46376827F00E07376077
:100A900007684F4518BF474527D0774518BF6745BA
:100AA00023D05F4518BF57451FD0AF4218BFA7429C
:100AB0001BD09F4218BF8F4217D0DFF8A061B7420A
:100AC0001CBFDFF86C61B7420FD0DFF89461B7420A
:100AD0001CBFDFF86061B74207D0DFF85C61B74246
:100AE0001CBFDFF85861B7420CD13E4637687F081B
:100AF0007F0037600BE03A4610461168490849000C
:100B0000016072E03E463668760876003E60066810
:100B10004E4518BF464546D0764518BF664542D07B
:100B20005E4518BF56453ED0AE4218BFA6423AD0E9
:100B30009E4218BF8E4236D0DFF82041A6421CBF2D
:100B4000DFF8EC309E422ED0DFF814118E421CBF2D
:100B5000DFF8E040A64226D0DFF8DC309E421CBF22
:100B6000DFF8D850AE421ED0DFF8D440A6421CBFFA
:100B7000DFF8D0108E4216D0DFF8CC50AE421CBF4A
:100B8000DFF8C8309E420ED0DFF8C4108E421CBF82
:100B9000DFF8C040A64206D0DFF8BC309E421CBF42
:100BA00013498E421AD1D16A0B6823F480730B600B
:100BB00092F82840536A012104F01F04A1405960B3
:100BC000146B556B6560916B41B10B460C461D680B
:100BD00025F480752560D16B136C4B6001240023D4
:100BE0005470D169137001B188470020BDE8F28FBD
:100BF000945402580C4B994270470F4B99427047DE
:100C00001000024058000240DFF8042B9042704769
:100C1000400002402800024070000240880002406C
:100C2000A0000240B8000240100402402804024024
:100C30005804024088040240A0040240B804024064
:100C4000085402581C540258305402584454025854
:100C5000585402586C5402588054025840040240C0
:100C6000700402402DE9FE4F0023DFF8E8480193AD
:100C700022684FF41651074607F13404DFF86CA9D7
:100C8000B2FBF1F10291606A00900122DFF8606925
:100C9000DFF860B90146DFF860890D680368D7F8AE
:100CA00000E00821DFF85499D64518BFCE4531D071
:100CB000C64518BFDE452DD0B6451CBFDFF840C97C
:100CC000E64527D0DFF83CC9E6451CBFDFF838C948
:100CD000E6451FD0DFF83CCAE6451CBFDFF82CC94B
:100CE000E64517D0DFF830CAE6451CBFDFF820C95B
:100CF000E6450FD0DFF818CAE6451CBFDFF814C977
:100D0000E64507D0DFF810C9E6451CBFDFF80CCA7E
:100D1000E64543D194F8280000F01F0001FA00F0E6
:100D2000054200F09880D64518BFCE4531D0C64563
:100D300018BFDE452DD0B6451CBFDFF8C4389E4530
:100D400027D0DFF8C00886451CBFDFF8BC08864501
:100D50001FD0DFF8C00986451CBFDFF8B0389E45BC
:100D600017D0DFF8B40986451CBFDFF8A408864514
:100D70000FD0DFF89C0986451CBFDFF898389E45E8
:100D800007D0DFF8940886451CBFDFF89009864538
:100D90004CD17346186800F004004BE0DFF8F458BB
:100DA000AE451CBFDFF8F058AE4518D0DFF8EC5860
:100DB000AE451CBFDFF8E858AE4510D0DFF8E45868
:100DC000AE451CBFDFF8E058AE4508D0DFF8DC5870
:100DD000AE451CBFDFF8E855AE4540F0DF82DEF8D7
:100DE00000E094F828504FF0040C05F01F050CFAB1
:100DF00005FC13EA0C0FCDF800C000F046825FEA54
:100E00004E7C40F14282009941605FEA0E4040F121
:100E1000F1815FEACE3100F130826169002900F092
:100E2000BD82384603B0BDE8F04F08477046006801
:100E300000F0080078B1DEF80030704623F00403BB
:100E4000036094F82800009B00F0AAFA9960206AD9
:100E500040F00100206294F8280000F01F0025FAFD
:100E600000F3D90740D53968514518BF49452FD0FF
:100E7000414518BF59452BD0B1421CBFDFF8803720
:100E8000994225D0DFF87C3799421CBFDFF87837CC
:100E900099421DD0FFF7AEFE1CBFDFF870379942B4
:100EA00016D0DFF8743899421CBFDFF864379942D6
:100EB0000ED000F07DFA1CBFDFF85837994207D0FA
:100EC000FFF79BFE1CBFDFF85438994240F0938037
:100ED000D1F814E05FEA0E6106D582400098826086
:100EE000216A41F00201216294F82810042001F0E7
:100EF0001F01884005423ED03968514518BF494519
:100F00002ED0414518BF59452AD0B1421CBFDFF849
:100F1000F026914224D0DFF8EC2691421CBFDFF886
:100F2000E83699421CD000F047FA1CBFDFF8DC26F7
:100F3000914215D0DFF8E03799421CBFDFF8D02688
:100F400091420DD0FFF716FD1CBFDFF8C826914275
:100F500006D0FFF752FE1CBFDFF8C02791424CD1EC
:100F6000D1F800C05FEA8C7305D500998860206ACB
:100F700040F00400206294F82800102100F010FADC
:100F80000D425BD03868504518BF48452FD04045CA
:100F900018BF58452BD0B0421CBFDFF864369842CA
:100FA00025D0DFF8602690421CBFDFF85C26904217
:100FB0001DD0DFF8603798421CBFDFF85026904202
:100FC00015D0FFF7A5FC1CBFDFF8443698420ED0C1
:100FD000FFF71AFE1CBFDFF83C26904207D0DFF86F
:100FE000383698421CBFDFF83427904209D1006898
:100FF00000F0080008E00A6876E70B46D3F800C066
:10100000B9E7006800F00400C0B10098816038685A
:1010100001684A0307D5006801030BD5616969B10E
:10102000384688470AE00268D30503D4016821F0F6
:1010300008010160E16809B13846884794F8280042
:10104000202100F0ADF90D423ED03868504518BF60
:10105000484530D0404518BF58452CD0B0421CBF41
:10106000DFF89C25904226D0DFF8983598421CBFC7
:10107000DFF89455A8421ED0DFF8982690421CBF96
:10108000DFF88835984216D0DFF88C56A8421CBF8E
:10109000DFF87C2590420ED0DFF8743698421CBFF2
:1010A000DFF87055A84206D0FFF72AFC1CBFDFF816
:1010B0006C36984203D1006800F0100003E002464D
:1010C000106800F00200002846D00098816038685F
:1010D00061780429026826D122F01602026039687C
:1010E000486920F080004861E168002904BF606918
:1010F000002804D03868026822F00802026094F8E0
:101100002810009A3F2001F01F01884090600120C4
:10111000607000212170E16900291FD0384603B0BA
:10112000BDE8F04F0847510307D5006802030FD40C
:10113000216989B1384688470EE00268D10507D495
:101140000368002123F01003036001206070217008
:10115000A16809B138468847206A002800F01E813E
:10116000216AC80745D5042262703868504518BF07
:10117000484526D0404518BF584522D0B0421CBF34
:10118000DFF87C1488421CD0DFF8782490421CBF22
:10119000DFF87434984214D0DFF8781588421CBF09
:1011A000DFF8682490420CD000F0FEF81CBFDFF896
:1011B0006014884205D0FFF727FD1CBFDFF85434C8
:1011C00098423B6818684008400019460860029839
:1011D000019A521C90420192396802D30A68D307DF
:1011E000F6D40868C1074CBF0322012262700020B8
:1011F0002070CCE05FEA8E603FD43868504518BF5D
:1012000048452ED0404518BF58452AD0B0421CBF93
:10121000DFF8EC13884224D0DFF8E83398421CBF93
:10122000DFF8E42390421CD0DFF8E81488421CBFAA
:10123000DFF8D853A84214D000F0B6F81CBFDFF88E
:10124000D02390420DD0FFF754FB1CBFDFF8C4330E
:10125000984206D0FFF754FB1CBFDFF8C014884249
:1012600006D103461A46186820F00800106004E012
:101270000546296821F004010160E16800291AD0BF
:10128000384603B0BDE8F04F08474FF0020C0CFAA7
:1012900005FC13EA0C0FCDF800C060D05FEA8E7C2D
:1012A0005DD5009941605FEA0E400AD55FEACE3114
:1012B0004ED42169002971D0384603B0BDE8F04F03
:1012C00008475FEA8E6043D43868504518BF4845E8
:1012D0002ED0404518BF58452AD0B0421CBFDFF879
:1012E0002023904224D0DFF81C1388421CBFDFF873
:1012F000183398421CD0DFF81C2490421CBFDFF842
:101300000C13884214D000F04FF81CBFDFF8002304
:1013100090420DD0FFF7EDFA1CBFDFF8F83298428B
:1013200006D0FFF7EDFA1CBFDFF8F013884206D1B4
:1013300003461A46186820F01400106004E00546C1
:10134000296821F00A0101600122002162702170E8
:10135000A16819B3384603B0BDE8F04F0847A9406B
:101360000B421BD05FEA0E7618D53D68296821F044
:101370000E012B46196094F82860012106F01F0623
:10138000B240426001202062002261702270A16997
:1013900021B1384603B0BDE8F04F0847BDE8F78FEC
:1013A00000F01F0081407047DFF86C3398427047AF
:1013B000DFF85C3399427047DFF858239142704759
:1013C000945402582DE9F84F0446DFF820A2A56D89
:1013D0008B4F00952668DFF818C2DFF818E2DFF8B7
:1013E0001882DFF81892564518BF4E4541D0464541
:1013F00018BF76453DD0664518BFBE4239D08148FA
:1014000086421CBF8048864233D0DFF808038642FC
:101410001CBF7E4886422CD0DFF8FC0286421CBFEF
:101420007B48864225D0DFF8E80286421CBF794817
:1014300086421ED0784886421CBFDFF8E002864212
:1014400017D0944886421CBF9348864211D09348D7
:1014500086421CBF924886420BD0924886421CBFEF
:101460009148864205D0914886421CBFAC488642CE
:101470005DD1D4F864B0A06ECBF80400E06E20B16A
:10148000206FD4F874B0C0F804B0564518BF4E456C
:1014900025D0464518BF764521D0664518BFBE42C7
:1014A0001DD0584FBE421CBF5748864217D099489E
:1014B00086421CBF5548864211D0974886421CBFC1
:1014C000534FBE420BD0924886421CBF51488642C1
:1014D00005D0514FBE421CBF9048864213D194F8AC
:1014E0005C70009D3F2007F01F07B840A86030687F
:1014F00020F4802030607360A368402B25D0B16059
:10150000F260BDE8F18F634886421CBF62488642A4
:1015100010D0624FBE421CBF614886420AD061486B
:1015200086421FBF604FBE426048864202D07C4860
:101530008642E6D194F85C00012700F01F00874046
:101540006F607360A368402BD9D1B260F160D8E7B7
:10155000000000001800002070B50168234B99427C
:101560001CBF264CA14229D0234A91421CBF214BCB
:10157000994223D01E4CA1421CBF214A91421DD04A
:10158000204B99421CBF204CA14217D0FFF714FFFB
:101590001CBF1E4B994211D05F4CA1421CBF1C4A7C
:1015A00091420BD0FFF704FF1CBF1A4CA14205D09B
:1015B000194A91421CBF594B994211D101F0FF06C3
:1015C000890A103E1822B6FBF2F20FF2981402F0CC
:1015D00007038902E55C042AC56503D3091D01E000
:1015E000090A09028165084670BD0000100002402A
:1015F00070000240580002404000024028000240B3
:1016000088000240A0000240B800024028040240C6
:101610005804024088040240A0040240F0B5046867
:1016200001221C4E2346B4421CBF1B4DAC4211D0BC
:101630001A4FBC421CBF1A4EB4420BD0194DAC42DB
:101640001CBF194FBC4205D0184EB4421CBF344DCC
:10165000AC4208D104F0FF0108391423B1FBF3F4C4
:101660003049314B0CE004F0FF0110391824B1FB74
:10167000F4F42E49CB18A92B38BF08342C492D4B34
:1016800001EB840104F01F04A240016643668266F8
:10169000F0BD0000085402581C540258305402583F
:1016A00044540258585402586C54025880540258FA
:1016B0000179002900D17047092970B527D2026845
:1016C0001D4B9A421CBF1D4DAA4211D01C4EB24266
:1016D0001CBF1C4B9A420BD01B4DAA421CBF1B4E79
:1016E000B24205D01A4B9A421CBF0D4DAA4204D1FA
:1016F000184A02EB8104184A03E0184B184A03EB1E
:10170000810402670122491E8A40C466426770BD97
:10171000700402401004024040040240B804024039
:10172000945402580058025880580258F0FBFDBFEC
:101730000008024080080240085402581C54025815
:101740003054025844540258585402586C540258A9
:1017500080540258FC58025840590258FC08024074
:1017600040090240000610160006101601484068A5
:10177000704700BF0C0000200EB418B504469DF859
:101780001100012818D1A26BDFF8380A22F4803248
:10179000A263E1680140E160E26822F44012E26085
:1017A0009DF81810012903D1E06840F48010E06032
:1017B000204600F083FC12E0E06840F04000E0606A
:1017C000204600F07BFC9DF8151021B9A26B42F475
:1017D0008032A26303E0A16B21F48031A1639DF804
:1017E0000E1001290FD1E36DDFF8DC199BB2E36520
:1017F000E26D0A43E265A36843F00603A360A168B3
:1018000041F02001A16012BC5DF810FB022A30B546
:1018100058D1DFF8B849DFF8B8296418944238BFC6
:101820004FF4705150D3DFF8AC39DFF8AC495B1896
:10183000A34238BF4FF4605146D3DFF8A029DFF848
:10184000A03952189A4238BF4FF450513CD3DFF8B8
:101850009449DFF894296418944238BF4FF44051FA
:1018600032D3DFF88839DFF888495B18A34238BFE4
:101870004FF4305128D3DFF87C29DFF87C39521837
:101880009A4238BF4FF420511ED3DFF87059DFF869
:1018900070296D18954215D3DFF86849DFF868396B
:1018A00064189C4238BF4FF400510DD3DFF85C2917
:1018B000DFF85C495118A1422CBF4FF4C0514FF4DE
:1018C000E05101E04FF41051C36823F47053C3603A
:1018D000C2681143C160002030BD816841F0010140
:1018E00002E081684908490081600020704738B5EE
:1018F00004460025E268012922F0C042E2600FD1CF
:10190000E16841F00051E1600A200A3500F09AFFD9
:101910006169C80701D4C82DF6D3C82D11D10EE0D6
:1019200069B9E06840F08040E0600A200A3500F0C4
:1019300089FF6169C807F0D5C82DF6D3EDE701200E
:1019400032BD002032BD0EB42DE9F8470027804695
:1019500000210446002204EB8100491C0F29C0F835
:101960000421F8D39DF82E5008F5006685B97068FB
:1019700040F002007060A26B22F40012A2632168A2
:1019800041F040012160206840F08000206003E0C9
:10199000A26B42F40012A263002108F560600160AE
:1019A0009DF82930012B04D19DF8272012B1012187
:1019B00000E00321204600F0BAF81021204600F094
:1019C0007AF800B10127204600F097F800B101270E
:1019D000002200203261002171614FF67F32F061F8
:1019E0009DF824104FF090434FF0006C824607E0C2
:1019F000CEF800A0D146401CCEF81090CEF80820BA
:101A0000884211D208EB401E0EF5106EDEF80090F1
:101A1000B9F1000FECD5002806BF08F51069C9F828
:101A200000C0CEF80030E5E7002007E0CEF800A0C7
:101A3000D146401CCEF81090CEF80820884211D232
:101A400008EB401E0EF5306EDEF80090B9F1000F85
:101A5000ECD5002806BF08F53069C9F800C0CEF8FB
:101A60000030E5E7306900216FF0804220F480709B
:101A70003061A16162619DF8260018B9A16941F049
:101A80001001A161A269DFF88C1B0A43A2619DF8D5
:101A90002A0018B1A16941F00801A161012D05D109
:101AA000A06940F0804040F00400A0613846BDE8E5
:101AB000F2075DF810FB78B500220092DFF8582B92
:101AC000009B5B1C0093009E964212D20569002D7C
:101AD000F6D500238901009341F0200101610099AE
:101AE000491C0091009C944203D203699906F6D4E4
:101AF00001E0032072BD002072BD38B500210091C5
:101B0000DFF8141B00F0FCFA0DD20369002BF9D5A5
:101B1000002210230092036100F0ECFA03D2036963
:101B2000DA06F9D401E0032032BD002032BD00F511
:101B3000006039E200F50060806810F0060006D011
:101B4000022818BF062801D1022070470F207047D5
:101B5000F0B50D784F7801242A4605F00F0500EB0B
:101B6000421304FA05F5012F00F50060DFF8984BE9
:101B700012D1C66903F510633543C5611D682E0493
:101B80001DD418688D680979C5F30A05284340EA11
:101B9000814040EA825010E0C26903F5306342EAB6
:101BA0000542C2611E68350409D418688A6809793B
:101BB000C2F30A02104340EA814004431C60002043
:101BC000F0BD70B500F03AF810D100F5106000F0EB
:101BD00023F8A543D563D5690C78DFF8301B04F0F2
:101BE0000F04A34025EA0303D36110E000F5306041
:101BF00000F012F825EA0445D563D5690C78DFF8C2
:101C0000101B04F00F04A34025EA0345D5610268C8
:101C10000A400260002070BD0668002E07D50468E7
:101C200044F000640460066846F080460660D56BA8
:101C30000C7804F00F0403FA04F470470B7800F5F5
:101C400000624C7800EB43100123012C70472DE912
:101C5000FC410D46044669782878274607F500635D
:101C6000DFF8B0CADFF8B0EA012907EB401640F010
:101C70008980296906F5106661B930690EEA000E9F
:101C8000C6F810E0316941F4002131613069C00CBF
:101C9000C00435E03169C90CC9043161D6F810803F
:101CA0000EEA080EC6F810E02969D5F808E060B918
:101CB00028697146814288BF0146296107F510678E
:101CC000396941F4002139610AE07144491EB1FBD0
:101CD000FEF130690CEAC14141EA000CC6F810C0BF
:101CE00030692969C1F3120108433061287901285C
:101CF00007D1316921F0C0413161306940F00050B5
:101D00003061012A16D1E86900B170612879012893
:101D10000BD19968C80504D4336843F0005333608D
:101D200003E0326842F080523260316841F0044191
:101D300031607BE0306840F004403060297901294F
:101D40000BD02869002871D0596B2C78012204F03F
:101D50000F04A2401143596368E09868C30504D496
:101D6000316841F00051316003E0306840F080504C
:101D7000306000922B692A78E96820469BB200F017
:101D8000A8F853E006F530663469E40CE4043461E5
:101D900031690EEA010EC6F810E0AC68296970B925
:101DA00001B12C612C6207F530673869C4F3120465
:101DB00004433C61396941F4002139611EE049B9AD
:101DC0003069C4F3120404433461316941F40021E1
:101DD000316113E06118491EB1FBF4F080B2444355
:101DE0000CEAC0402C62316940EA010CC6F810C010
:101DF0003069296AC1F3120108433061012A02D116
:101E0000E86800B17061287901280BD19968C8058C
:101E100004D4326842F00052326003E0316841F08D
:101E200080513160306840F0044030600020BDE8EF
:101E3000F681F8B5002200924D780B78012D00EB69
:101E4000431442F211731CD104F510642768002F6B
:101E500035D500F036F804F51064266846F0804663
:101E60002660009C641C0094DDF800E09E4525D2AD
:101E70000F7800EB471606F510663568002DF0D494
:101E80001DE004F530642768002F18D500F019F81C
:101E900004F53064266846F080462660009C641C89
:101EA0000094DDF800E09E4508D20F7800EB47165D
:101EB00006F530663568002DF0D400E001221046AA
:101EC000F2BD256845F0006525600C7800EB4414F0
:101ED000704778B5059C6CB9DB1C002507E000EB6A
:101EE000023651F8044B6D1C06F580563460B5EB94
:101EF000930FF4D3002072BD38B5950802F00302A9
:101F0000002300F5805003E004685B1C41F8044B9B
:101F1000AB42F9D313000DD000686D460023286052
:101F2000009C521E95B2D8005B1CC440002D01F8E5
:101F3000014BF5D1084632BD0A78497800EB4210D2
:101F400001290CBF00F5106000F530600368002B1C
:101F500004D41AB1026822F080420260016841F4A0
:101F6000001123E00A784B7800EB4210012B0CBFE4
:101F700000F5106000F53060026822F40012026083
:101F80000979032918BF022903D1016841F0805162
:101F900001600020704700F500600901036801F44A
:101FA000FE6123F4FE6303600268114301600020B8
:101FB000704700F5606200F50060116889088900CB
:101FC0001160426822F002020AE000F5606200F54A
:101FD00000601168890889001160426842F00202BD
:101FE000426000207047014648698969084070478F
:101FF00000EB411202F5A0629068D168084070477A
:1020000000F500618869C9690840000C704700F557
:1020100000618869C969084080B27047024602EBD6
:10202000411002F5006200F5306080685169084097
:102030007047024602F5006302EB4112186901F095
:102040000F015B6B02F510629268CB40DB0103F07D
:102050008003184310407047406900F0010070474A
:1020600000F5106200F500601168C90AC90211602C
:10207000426842F48072B3E7DFF8A03650B5046CD2
:1020800000F530609C4202D30668002E14D4002470
:1020900001290461036943F400230361046944F0E6
:1020A00018040461036943F0C043036104D1426131
:1020B000016841F080210160002050BD38B5002149
:1020C0000091DFF8541500F01BF80FD20369002BC4
:1020D000F9D500220092036943F00103036100F087
:1020E00009F803D20369DA07F9D401E0032032BD0D
:1020F000002032BD009A521C0092009C8C42704716
:10210000009A521C0092009D8D4270470EB43CB55F
:102110000546002105F5606000240160AA6B22F4E9
:102120000012AA63A86B20F40030A863E96805F5E3
:1021300080604A060CD49DF81710012903D102686B
:1021400042F0040207E0016821F00401016003E0AD
:10215000026822F00402026010212846FFF7ABFC5F
:1021600000F02CFB00B1012400224FF0FF3007E00B
:1021700005EB42130021521C03F5A0639860D9605F
:102180009DF815108A42F3D300224FF40073AA6120
:10219000DFF88C156861DFF88C056B62A862C5F802
:1021A00000119DF8160018B9AA6942F01002AA6140
:1021B000A969DFF8740501432046A96136BC5DF8C2
:1021C00010FB0000BFFFBDFF0000EE03405327FFE0
:1021D00000350C00401E1BFF40420F0000DC0BFFCF
:1021E000804F1200808CF9FE20D6130060B6E5FE09
:1021F00060E3160000D3CEFE40771B00C05BB3FE49
:10220000C091210000CA91FE20753800E05459FEAB
:10221000E09C410020B500F5806001F003020568F4
:10222000AD08AD000560036813430129036004D1C4
:102230004BF680314160002020BD022908BF41F2E9
:102240007071F7D0012020BD1CB5002100F5886415
:102250000091226800920099642021F02E010091E3
:10226000009A42F48072226000F0ECFA00990A2091
:1022700021F48071216000F0E5FA002016BD18B548
:10228000002300F58860009304680094009B23F00D
:102290002E030093009CE20407D4012905D1009984
:1022A00041F480510160009807E0009BDA0404D5F6
:1022B00019B9009921F480510160002012BD81B04C
:1022C0000021009100F5886002680092009901B039
:1022D000C1F34140704700F58060806880B270476C
:1022E0002DE9F84F00EB41160B9C4FF0FF3B1F46CA
:1022F0004FF00008032C06F5A066C6F808B024D8F5
:10230000DFE804F00219020C130640F29D49C6F8FA
:102310000C9009D4F56845F0600514E0150640F20C
:102320009D6CC6F80CC012D5D6F80CC04CF4807C5D
:10233000C6F80CC00BE0130640F22525F56006D563
:10234000F56845F4C075F56001E04FF001080A9D9D
:102350004FF0000EC6F804E0D6F80CC000F580631C
:1023600001F00F0191464FEAD91A4CF0020CC6F861
:102370000CC0D3F818E04FF0010C0CFA01F141EA5F
:102380000E019961816941F000718161FFF797FF4A
:10239000022D04D1022818BF4FF4003100D10021D2
:1023A000BF054FEAC92207F0FE5702F4F0420C982D
:1023B0001743A20402F440221743C0F30A00074364
:1023C00047EACA370F4347F480173760032C18BF1A
:1023D000012C03D1316841F0005131604046BDE825
:1023E000F28F0000F8B54C78012A00EB441606F590
:1023F000A06640F082808B7C002B18BF022B03D19B
:10240000F36823F07003F3608C79CF68012C40F0FF
:102410009180CB784FF4002E002B40F087808C7C8D
:10242000012C40F07B800C6ABD2C71D38C8A012F6B
:102430000C621ABF022F01270227CC618B7DCC6969
:10244000CF60C4F312044EEA04045B0703F0C043F8
:1024500043EA040E1400C6F810E01CBF8B697361D8
:1024600000F58065AB68346824F000543460376848
:1024700003F0010383F0010347EA437737608B7968
:10248000012B40F082804C7C0B7C43EAC41343F068
:1024900000437360F76847F06007F760CC79012C60
:1024A00004BFCB78002B07D1746844F48034746087
:1024B000F36843F04003F3608B7C012B18BF032BC0
:1024C00065D1CB79012B04BFCC78012C03D1736883
:1024D00043F4803373608C7C012C04BFCB78002BD9
:1024E00055D1CC68641E032C51D8DFE804F00240BB
:1024F0004449776847F4004745E00B79002B04BF57
:102500004F79012F7FF480AF214600F0F0F87EE094
:10251000012F16BF022F032704278EE7012A07D1B8
:102520008C8A0B6A9C4288D91C4686E78C8A84E791
:102530000C6A82E70C6A7CB18B8A1D19A5F1010C2B
:10254000BCFBF3FC1FFA8CFCBCF5807F06DD1B0294
:102550004FF4807CCB6101E04FF0010CCB7813B1DC
:102560008C8A04FB0CF46B4B03EACC4E65E7746871
:1025700044F00E040AE0736843F48043736006E09D
:10258000776847F44047776001E00024746033685F
:102590000093009F27F080470097CB7823B1009FDE
:1025A00047F40047009703E0009C24F400440094A3
:1025B000009F002A47F000470097009C346004BF4A
:1025C000CA78002A23D10A6A0AB3CB79FBB98C7C7A
:1025D000032C14D8DFE804F0020B020BC36A00F0EE
:1025E0001DF80CD2826942F02002826107E02B695B
:1025F00000F014F803D2836943F080638361002202
:1026000000920B6A4A7889699BB2FFF762FC00204E
:10261000F2BD000000383C800100000FD21C920384
:102620009BB2B3EB124F704700F58060406980B2F7
:102630007047F8B50346002203EB4114009204F5FD
:10264000A0642168226865688668B706C1F3814185
:1026500006D5002D04D4D20F1CBF012903293BD07D
:1026600040F2E932002918BF02291BD1236843F048
:102670008043236081688D062AD4C36A13F47F0FD8
:102680000BD100F02BF80098401C0090009991426B
:1026900022D220680028F6D41EE0216841F00041D3
:1026A000216019E0206803F5806340F080402060DD
:1026B000196911F47F0F0BD100F010F80098401C3D
:1026C0000090009B934207D221680029F6D403E0D2
:1026D000226842F0004222600020F2BD206820F013
:1026E00000402060216841F000412160704700EB0C
:1026F00041100E4A022100F5A0600261026861F3F8
:102700009F7202600020704700800010007833EC58
:102710000078F3EF0000F81FFFFF07E00B30544F85
:102720000003E00000020001080020A30000088070
:10273000F8B5054600200090AA681021284600241C
:1027400052085200AA60FFF7B6F900F037F800B15E
:102750000124002205EB4211521C102A01F5A06150
:10276000086820F0802040F080400860F2D300200C
:1027700005EB401101F5A0610A6822F4004242F025
:1027800040420A6040F2E932009F7F1C0097009BA4
:10279000934204D2D1F800E0BEF1000FF4D4401C03
:1027A0001028E5D34FF0FF3005F580667061686151
:1027B000A86840F00100A8602046F2BD00B10124E5
:1027C0002846FFF79AB9F0B40246106895681318C6
:1027D000506803EB5004C00748BF4D44A3422DD0BE
:1027E00013F8016B16F0030004BF13F8010BC01CB3
:1027F00031090F2907D113F8011B0F3103E013F83A
:10280000017B05F8017B401EF9D10029E6D013F8C1
:10281000010BC6F38107032F08BF13F8017B00EB00
:102820000720404228440026B71E8F421EBF10F8E2
:10283000017B05F8017B761CF6D1CFE7F0BC02F1F5
:102840000C00704738B50546FEF790FF15F1010FF3
:10285000044602D0044908782D18FEF787FF001BB4
:10286000A842FAD331BD00BF0C00002040F0200088
:1028700070472DE9F14FB0B0924604910DF142013D
:102880003A9A2B9199464A7000200AE01AF8011BE7
:102890000498309A90470028049000F043860D98E1
:1028A000401C0D909AF8000050B12528EED100226E
:1028B00000210792089109920A910B920C9104E071
:1028C0000D9800F031BE41F001011AF8010F2028E7
:1028D000F9D023280CD02B2804D02D2805D030285F
:1028E00009D00BE041F00201EFE741F00401ECE711
:1028F00041F00801E9E741F01001E6E72A280FD18D
:10290000D9F8002052F8040BC9F8002000280F90D5
:1029100003D540420F9041F004010AF1010A14E08E
:102920000F92DFF80C0C0AE00F9C844205DA04EBEE
:10293000840302EB4302303A0F920AF1010A9AF83B
:102940000020A2F130030A2BEED39AF800202E2AA1
:1029500003D04FF0FF300E9029E01AF8010F2A281B
:1029600009D1D9F8002052F8040BC9F800200E90C4
:102970000AF1010A1BE02D280CBF0AF1010A002010
:1029800000220E92DFF8A85B0BE040B90E9BAB4231
:1029900005DA03EB830402EB4402303A0E920AF1AB
:1029A000010A9AF80020A2F130030A2BEDD3ADF80A
:1029B00040100FF680309AF8001000F0BDFE08B10C
:1029C0001AF8010B8DF842009DF84200682805D1E5
:1029D0009AF8001068290CD1622006E06C2804BF28
:1029E0009AF800106C2904D171208DF842000AF188
:1029F000010A12AA06921AF801BBBBF125002CD0DD
:102A00001C3800F09781001F022840F29381133890
:102A100000F0BA84093800F08D81801E00F04F85E7
:102A2000401E00F0FC84401E022840F28381001FFB
:102A300000F0F584401F00F0F280401E00F0A484F6
:102A4000401E00F0DA80C01E0ED0801E00F09C8474
:102A5000C01E00F0998400F03DBD0122252107929F
:102A60008DF8481000F042BDD9F8000050F8044B32
:102A7000C9F80000002C059440F0AB802B994878F1
:102A8000002800F0A1804FF0FF340FF6B02000F0D6
:102A90005FFE241A40F0468500F028BD01236A46F7
:102AA00002A9304600F00CFE002840F03B85641E71
:102AB000F4D13096079C12AE74B1309F16F8011B0A
:102AC0000498B8470028049000F02C850D98401C0D
:102AD000641E0D90F2D130970A9C3021002C8DF8A5
:102AE00000100CDD309E01236A4602A9304600F03A
:102AF000E7FD002840F01685641EF4D13096059E4F
:102B0000089C74B1309F16F8011B0498B847002840
:102B1000049000F007850D98401C641E0D90F2D1C2
:102B200030970B9C3021002C8DF800100CDD309E6E
:102B300001236A4602A9304600F0C2FD002840F099
:102B4000F184641EF4D1309605980899099C4618C2
:102B500074B1309F16F8011B0498B8470028049000
:102B600000F0E0840D98401C641E0D90F2D1309767
:102B70000C9C3021002C8DF800100CDD309E0123C0
:102B80006A4602A9304600F09BFD002840F0CA8446
:102B9000641EF4D130969DF8400041077FF582AE67
:102BA0002020002D8DF800007FF77CAE309C0123A3
:102BB0006A4602A9204600F083FD002840F0B28456
:102BC0006D1EF4D130946DE60FF65430059000F090
:102BD0008DBC0E9D002D04D5204600F0D9FD044685
:102BE00008E02A460021204600F0DCFD002814BF42
:102BF000041B2C46089400F079BCD9F8001051F859
:102C0000040BC9F8001020F00002002121F0FF336E
:102C1000CDE9022312AC0594782100F04CBC2B992D
:102C2000487820B14FF0FF340FF6C4202FE79DF80D
:102C30004200622860D0682817D06A283FD06C28EC
:102C400006D0712847D074282CD07A281DD062E095
:102C5000D9F8001051F8040BC9F80010002866D10B
:102C60004FF0FF340FF6A02011E7D9F8001051F80B
:102C7000040BC9F8001020B94FF0FF340FF688207C
:102C800005E70D99018000F031BCD9F8001051F82A
:102C9000040BC9F80010002849D14FF0FF340FF69B
:102CA0006820F4E6D9F8001051F8040BC9F80010B8
:102CB00000283CD14FF0FF340FF64C20E7E6D9F85E
:102CC000001051F8040BC9F8001080B94FF0FF3420
:102CD0000FF63420DBE6D9F8001051F8040BC9F8E0
:102CE000001020B94FF0FF340FF61C20CFE60D9AEC
:102CF000D317C0E90023F9E3D9F8001051F8040B09
:102D0000C9F8001020B94FF0FF340FF6FC10BEE6F2
:102D10000D990170EAE3D9F8001051F8040BC9F8D5
:102D2000001020B94FF0FF340FF6DC10AFE60D991C
:102D30000160DBE39DF842004C2807BFD9F8001082
:102D4000CA1DD9F80000C21D22F00702C9F80020F0
:102D5000D2E900010832C9F80020CDE90201C80F0C
:102D600002D007982D210AE0BDF84010880702D54F
:102D700007982B2103E0C80705D50798202112AA40
:102D80001154401C079012A807994BF0200300EB48
:102D9000010CDDE90201CDE92C01612BCDF814C055
:102DA00021AC0BD00E98002848BF062105D404BFE3
:102DB0004BF02000672801D101210E91DDE9026767
:102DC0007B0043EAD6735A15DB174FF0FF3083427E
:102DD00008BF824210D13F0347EA16573603002F3F
:102DE00008BF002E08D0ABF1610503211A2D089110
:102DF00018D30FF6341110E0DDE902014A00521534
:102E000012F1010F11D108030FD1ABF161050321BC
:102E10001A2D08911FD30FF618110322604600F0F7
:102E2000EDFC63E30FF6FC01F7E7DDE902016A461A
:102E300000F0F0FCCDE902014BF02000612811D137
:102E4000059830220270811C0591BBF1610F0CBF07
:102E50007821582102E00FF6D401DEE7417007988F
:102E6000801C0790DDE9020120F0000231F00043F0
:102E700008BF002A02D10026002542E14BF02008BD
:102E8000B8F1610F40F093800E98002847BF2121D0
:102E90000191401C0190019EDDE92C01761C00226D
:102EA0000023DDE9024500F0EDFC38BF85F0004568
:102EB00000988DF88420001F002E00900DF18507EA
:102EC00032DD204629460022002300F0F5FC2BD2FB
:102ED0001C2200F00BFD04460D4600F089FDF61F94
:102EE000002E804609DD00F08AFD02460B46204692
:102EF000294600F08BFD04460D46F81D0721B8F168
:102F0000000F0CDD491E5EBF08F00F0200F8012D16
:102F10004FEA2818F3D502E0002200F8012D491EDF
:102F2000FAD5C71D002ECCDC0DF185003F1A0198A3
:102F30000DF185043E468742C8BF0646002E2FD4B9
:102F4000BE4206DA0DF18500815D0829A8BF0F2079
:102F500000DA0020324621A98D1800E0761E15F80F
:102F60000139521E8342F9D00F2804D10DF1850199
:102F7000885C401C8854002A04D50098001D21ACB0
:102F8000761C0090701E0BD421180B783033DAB207
:102F90003A2AA4BF5B443A3B401E01F80139F4D5FC
:102FA0000E99002940F1AC80701E0E90A8E00099A7
:102FB000DFF8FC2647F29750414391FBF2F2009272
:102FC000DDE92C45C2F10702002A25F0004504DDA9
:102FD0002046294600F049FB0BE052420020DFF872
:102FE000D41600F042FB02460B462046294600F06C
:102FF00016FD04460D46B8F1660F06BF009E0A3660
:1030000006260E983618142EC8BF142630208DF8C8
:1030100084000DF18507002E34DD2046294600F09E
:1030200007FD01460A4607F1080C04200A27B2FBF7
:10303000F7FE0EEB8E03A2EB430230320CF8012CAC
:103040000A22BEFBF2F202EB8203AEEB4303303303
:10305000401E0CF8023DE9D1083E002E0CF1080795
:10306000D9DD084600F0EBFC02460B462046294617
:1030700000F0CCFC0022DFF8403600F0E7FC04460C
:103080000D46CAE70DF185003F1A0DF1850404E0F5
:103090000098401E7F1E0090641C20783028F7D0D6
:1030A000B8F1660F02D1009E761C04E0B8F1650FFE
:1030B0000CBF012600260E983618B742B8BF7E1EF8
:1030C000002E1DD4BE4204DAA05D3428C8BF3920CA
:1030D00000DC30203246611E8D1800E0761E15F8A7
:1030E0000179521E8742F9D0392802D1A05C401CD8
:1030F000A054002A04D50098401C0C46761C009071
:10310000009D00F0ADFC406A0778DDF8388030B2F1
:10311000002802DC01260FF21C644BF02000662818
:1031200008BF6D1C16D0672845D128B210F1040FD6
:1031300047DB404545DA9DF840106D1C080703D475
:1031400030B24045D8BF804628B2B8EB000848BF2F
:103150004FF000080FFA85FBBBF1000F00F3B380BE
:103160000898411C0891302205990A54B8F1000FC3
:1031700003DC9DF84010080704D50898411C08910D
:1031800005990F5418EB0B0FB8BFC8F100052DB20D
:103190006842454432B20B909542B8BF2E46059B1B
:1031A000089836B2099632462146184400F026FBAC
:1031B000AD1B0C95D1E0BBF1610F17D14FF0700B37
:1031C00019E030B2404504DA9DF840100A0758BFB4
:1031D0008046B8F1010848BF4FF00008BBF1670F07
:1031E00014BF4FF0450B4FF0650B04E0BBF1410FEE
:1031F00008BF4FF0500B0898411C0891B8F1000F20
:10320000059914F8012B0A5403DC9DF840100807B7
:103210001AD50898411C0891B8F1000F05990F5470
:1032200012DD761E30B28045B8BF46460598089B31
:1032300032B22146184400F0E1FA089836B230184C
:103240000890A8EB06000B9005980899014428B255
:10325000002881F800B003D42B204870891C04E0BA
:103260002D224A700546891C6D4200202CAA0AE0D6
:103270002B460A2593FBF5F505EB8504A3EB4403E8
:1032800002F8013B401C2DB2002DF1DC012806DCC8
:103290004BF02002652A04BF302201F8012B0028E0
:1032A0002CAB08D1302001F8010B06E0401E1A5C5F
:1032B000303201F8012B0028F8DC059A08981044F8
:1032C000091A099149E031B228B281421CDA059B02
:1032D000089832B22146184400F090FA089936B2A4
:1032E00071180891ABEB0600B8F1000F0B9003DCEE
:1032F0009DF84000020704D5059847540999491CD8
:103300000991CDF8308028E0059B08982AB2214623
:10331000184400F073FA0898761B5844B8F1000F6F
:10332000089003DC9DF840100A0703D5411C089162
:1033300005990F5430B28045B8BF46460598089BA2
:1033400032B204EB0B01184400F058FA089836B278
:1033500030180890A8EB06000B909DF8400000F094
:103360001400102840F0C280079A08980B99821820
:1033700009988A1882180C980F998018884280F250
:10338000B580081A0A90B1E09DF84200622808D082
:1033900068280ED06A2814D06C281FD0712810D04D
:1033A0001CE0D9F8001051F8040BC9F80010C0B2A5
:1033B0001AE0D9F8001051F8040BC9F8001080B2D7
:1033C00012E0D9F80000C21D22F00702C9F800205F
:1033D000D2E900010832C9F8002006E0D9F800104F
:1033E00051F8040BC9F800100021CDE902019DF845
:1033F000400002075AD5DDE90201002908BF002874
:1034000054D04BF02002782A50D1079912A83023CB
:103410004354491C4A1C079200F801B046E09DF84D
:103420004200622808D068280ED06A2814D06C2880
:103430001FD0712810D01CE0D9F8001051F8040BEF
:10344000C9F8001040B21AE0D9F8001051F8040B86
:10345000C9F8001000B212E0D9F80000C21D22F035
:103460000702C9F80020D2E900010832C9F800209B
:1034700006E0D9F8001051F8040BC9F80010C11784
:10348000CDE90201002902D507982D220AE0BDF8F6
:103490004000810702D507982B2203E0C00705D51D
:1034A0000798202212A90A54401C079012A80799D5
:1034B00001440591594602A800F04EF816E001209B
:1034C0000790D9F8001051F8040BC9F800108DF8D6
:1034D00048000BE001222521BBF1000F07928DF877
:1034E000481003D0022007908DF849B00F9D07982F
:1034F0000A992D1A08986D1A0B992D1A09986D1AA8
:103500000C992D1A9DF840006D1A41073FF5D2AA7B
:103510002020002D8DF800007FF7CCAA309E2C468D
:10352000FFF7BCBA4FF0FF3031B0BDE8F08F0000BC
:10353000CBCCCC0C686A6C747A4C00007072696EEB
:1035400074665F733A20626164202573206172673C
:10355000756D656E740000002DE9FE4C06468B46C5
:10356000376958466F2808BF082205D0FFF77EF953
:10357000782814BF0A221022D6E900013C2504460F
:103580008A46BBF1640F18BFBBF1690F04D1002953
:1035900002D564426AEB4A0ABAF1000F08BF002C58
:1035A0000CD1306B50B9082A3BD196F83810080777
:1035B00037D530213B2587F83B1032E08DF800B03D
:1035C0009346204651465A46002300F04DFA3032C9
:1035D000D0B26D1E3A2801950DDA7A552046514633
:1035E0005A46002300F040FA04465FEA010A08BF89
:1035F000002C05D108E09DF800001218513AECE7C4
:10360000F16878198142DCD3BBF1080F09D196F833
:103610003800010705D5785D302802D06D1E3020B6
:103620007855C5F13C02306BB26179198242F16084
:1036300007DA318F821A4FF6EF700140326231871C
:1036400010E000280ED596F8380000F0140010287D
:1036500008D1736B7069316A1B1A5B1A9B1A002BB5
:10366000C8BF336203B0BDE8F08C2DE9D0430646F5
:103670000F4614464FF00008DFF8409012E0E007D4
:1036800007D542464B463046394600F0DFF906463C
:103690000F464046494642464B4600F0D7F9641073
:1036A00080468946002CEAD130463946BDE8D083B1
:1036B000A08601000000F03F84D79741000024401D
:1036C000F8B505460E4617461C4600205CB117F8B3
:1036D000011BB068A847B06030B1F06A401CF062CE
:1036E0000020641EF3D1F2BD4FF0FF30F2BD0000A8
:1036F0007072696E74665F733A20256E2064697318
:10370000616C6C6F776564007072696E74663A20E4
:1037100062616420256E20617267756D656E74004C
:10372000000000006E616E004E414E00696E660042
:10373000494E460030002E00C9B202788A421AB1C2
:103740001CBF10F8012FF9E718BF002070470000D8
:1037500080B500B906A005490B681BB122220021E3
:10376000984701E000F003FA222002BDC4B6012010
:10377000636F6E73747261696E742068616E646CDD
:1037800065723A20626164206D65737361676500DC
:1037900000F1010310F8011B11B110F8011BFBE748
:1037A000C01A7047C9B2830706D0521E22D310F840
:1037B000013B9942F7D11FE0083A13D302F104020A
:1037C00041EA012141EA014150F8043B121F21BFA7
:1037D0004B40A3F1013C2CEA030C1CF0803FF3D0DA
:1037E000C9B2001F0832521E24BF10F8013B91EAF3
:1037F000030FF8D818BF0120401E70474AB10000DF
:1038000011F8013B521E00F8013B1CBF11F8013BAF
:10381000F8E7704710B5144600F002F8226010BDBA
:10382000C1F30A5343B14A0012F5001F28D2A3F294
:10383000FE32A1EB0251704750EA410C20D001F05A
:10384000004C31EA0C01B1FA81F204BFB0FA80F306
:10385000D2180B3AB2F120032CBF00FA03F19140C9
:1038600041EA0C013EBFC2F1200C20FA0CF31943CF
:103870009040524240F2FD33D21A01EB035170479F
:103880000022704741EA030C50EA4C0C52EA0C0C3F
:103890004FF4001C09D307D01CEB410F9CBF1CEB5D
:1038A000430F8B4208BF824270471CEB430FFBD88B
:1038B000994208BF9042704741EA030C50EA4C0C11
:1038C00052EA0C0C4FF4001C09D307D01CEB410F3B
:1038D0009CBF1CEB430F994208BF904270471CEB02
:1038E000410FFBD88B4208BF8242704700B541ECC4
:1038F000100B104600F004F851EC100B00BD00BF97
:10390000020030EE101B40F2FF7C37D41CEA11534A
:1039100013D063456BD09B18634504D201EB025171
:1039200020EE101B704701F0004141EA0C510020CD
:1039300041EC100BAFF30080704710EE100B50EA13
:10394000410054D0B2F57F7F08D202EB5C0109053B
:10395000002041EC110B20EE010B70474FF0FE41AF
:10396000002341EC113B20EE010BB2F57E7230EEEC
:10397000101B4FEA410342EB5353CDE752421CEA7E
:10398000115316D0634532D09A4204D2A1EB0251B2
:1039900020EE101B70475B1ED21AA1EB035120EEE4
:1039A000101B372A0CD3002001F0004141EC100B12
:1039B000C0E710EE100B50EA410018D0372AF2D2BF
:1039C000C2EB5C021105002041EC110BF1EE100A74
:1039D00020F01F0121F4F851E1EE101A20EE010B46
:1039E000F1EE101AE1EE100A11F0080FA2D17047A3
:1039F00041EC100BBDEEC00B10EE100A704700EE4C
:103A0000100AB8EEC00B51EC100B704741EC110BD3
:103A100043EC102B31EE400B51EC100B704741EC96
:103A2000110B43EC102B81EE000B51EC100B704787
:103A300041EC100BBCEEC00B10EE100A704700EE0C
:103A4000100AB8EE400B51EC100B704741EC110B13
:103A500043EC102B21EE000B51EC100B70470000D3
:103A600000487047D8030020D3BBD9B1B2F5803FDE
:103A70005BD2022A1ED98C46B1FBF2F102FB11C3C4
:103A80001B0443EA1043B3FBF2FC02FB1C3380B27D
:103A900040EA0343B3FBF2F002FB103240EA0C4071
:103AA00000237047022A05D98446B0FBF2F002FBDE
:103AB00010C270474AB105D100F0010249085FEA1F
:103AC0003000704700220023704700F053B80B000D
:103AD0000200002100207047F7D300220023704726
:103AE000904271EB030CF2D370B5B1FA81F4B3FAE2
:103AF00083F52C1BA340C4F1200532FA05F63343AD
:103B0000A2405FF00046E64002E05B085FEA320256
:103B1000841A71EB030524BF204629467641F4D36D
:103B200002000B003000002170BD70B5B1FA81F4C5
:103B3000B2FA82F5C4F120046419B4F12006DAD394
:103B4000B2405FF00044F440002502E052085FEA12
:103B50003303C61A71EB020E24BF3046714664412E
:103B60006D41F3D302000B002000290070BD01203D
:103B700000F002B87047000080B5AFF30080024A41
:103B800011001820ABBEFBE7260002002DE9F0472C
:103B900006460024D6E900010201A046DFF8D0570E
:103BA00022D5B36E4BB1B3F5801F0BD0B3F5001F18
:103BB00015D0B3F5401F09D014E0EA6942F4003291
:103BC000EA6105E0022100F0CEFB044620000AD1A4
:103BD000296CB06E21F440110143296404E000F027
:103BE000BCFBF2E70124A046D6E90001C3051CD5C1
:103BF000B26D042A17D8DFE802F0030E12050500A3
:103C000000F0A1FB20000FD1296CB06DC90840EA7B
:103C1000C101296409E000F0A5FB0446F2E7002198
:103C200000F097FBF9E70124A046D6E900018305DF
:103C300020D5F26D4AB1402A12D0802A14D0C02A71
:103C400018BFB2F5807F02D012E000F07CFB2000AC
:103C50000FD1296CF06D21F4E0710143296409E072
:103C600000F080FB0446F2E7002100F072FBF9E768
:103C70000124A046D6E90001430506F1840723D5B7
:103C80007A6A62B1B2F5001F14D0B2F5800F15D078
:103C9000B2F5C00F18BFB2F5000F02D012E000F06D
:103CA00052FB20000FD1A96C786A21F46001014316
:103CB000A96409E000F056FB0446F2E7002100F099
:103CC00048FBF9E70124A046D6E90001030523D506
:103CD000BA6A62B1B2F1807F14D0B2F1007F15D020
:103CE000B2F1407F18BFB2F1806F02D012E000F055
:103CF0002AFB20000FD1A96CB86A21F0E0610143D2
:103D0000A96409E000F02EFB0446F2E7002100F070
:103D100020FBF9E70124A046D6E9000183011AD56A
:103D2000F26C42B1102A04D0202A0DD0302A02D0E1
:103D30000FE000F008FB20000CD1E96BF06C21F0E3
:103D400030010143E96306E0022100F00CFB044668
:103D5000F1E70124A046D6E90001C20423D5336E61
:103D600063B1B3F5805F14D0B3F5005F15D0B3F540
:103D7000405F18BFB3F5804F02D012E000F0E3FAC5
:103D800020000FD1296C306E21F4E04101432964F9
:103D900009E000F0E7FA0446F2E7002100F0D9FA62
:103DA000F9E70124A046D6E90001830422D5726E0A
:103DB00092B1B2F5803F0BD0B2F5003F15D0B2F50D
:103DC000403F1CBFB2F5802FB2F5A02F04D00FE00A
:103DD000012100F0C8FA044620000AD1296C706E57
:103DE00021F4E0210143296404E000F0B1FAF2E794
:103DF0000124A046D6E90001430422D5FA6A92B113
:103E0000B2F1805F0BD0B2F1005F15D0B2F1405F2C
:103E10001CBFB2F1804FB2F1A04F04D00FE00121DE
:103E200000F0A1FA044620000AD1A96CF86A21F03A
:103E3000E0410143A96404E000F08AFAF2E70124BA
:103E4000A046D6E9000103041AD5326F42B1B2F19F
:103E5000805F03D0B2F1005F0BD00FE000F073FA87
:103E600020000CD1296C306F21F0405101432964AE
:103E700006E0012100F077FA0446F1E70124A046AC
:103E8000D6E90001C30118D5B26C032A13D8DFE8C4
:103E900002F004020D0400F056FA20000CD1E96B88
:103EA000B06C890840EA8101E96306E0022100F074
:103EB0005AFA0446F1E70124A046D6E9000143027C
:103EC0003FD5DFF88896D9F8002042F48072C9F80F
:103ED0000020FDF74BFC8246D9F80010C80506D437
:103EE000FDF744FCA0EB0A006528F5D327E020008D
:103EF00026D1296E386B01F4407100F44070814284
:103F00000BD0286E2A6E42F480322A66296E20F485
:103F1000407021F4803129662866386BB0F5807FC7
:103F20002BD1FDF723FC8146296E880725D4FDF7A8
:103F30001DFCA0EB090041F289318842F4D303242F
:103F4000A0463278D10738D5F06F68B1082807D07D
:103F500010282DD018281CBF2028282804D02AE09B
:103F6000012100F000FA0446200025D1696CF06FB1
:103F700021F03801014369641FE0386B00F440719F
:103F8000B1F5407F09D12A68DFF8FC1501EA10116C
:103F900022F47C520A432A6003E02B6823F47C530A
:103FA0002B60286E396BC1F30B0108432866C8E704
:103FB00000F0CEF9D7E70124A0463278910719D551
:103FC000B06F052814D8DFE800F0070310070707D3
:103FD000012100F0C8F9044620000AD1696CB06FD5
:103FE000C90840EAC101696404E000F0B1F9F2E7F0
:103FF0000124A04631784A0719D53869052814D814
:10400000DFE800F0070310070707012100F0ABF914
:10401000044620000AD1A96C3869C90840EAC101E8
:10402000A96404E000F094F9F2E70124A046317895
:104030008A0621D5F86888B1B0F1805F0BD0B0F165
:10404000005F14D0B0F1405F1CBFB0F1804FB0F101
:10405000A04F03D00EE000F085F9044620000AD1FD
:10406000696CF86821F0E0410143696404E000F004
:1040700074F9F2E70124A04631784A0621D5B869DF
:1040800088B1B0F5806F0BD0B0F5006F14D0B0F5EB
:10409000406F1CBFB0F5805FB0F5A05F03D00EE0AD
:1040A00000F060F9044620000AD1A96CB86921F437
:1040B000E0510143A96404E000F04FF9F2E7012464
:1040C000A04631780A0621D5F86988B1B0F5005FBD
:1040D0000BD0B0F5804F14D0B0F5C04F1CBFB0F579
:1040E000004FB0F5204F03D00EE000F03BF904463E
:1040F00020000AD1A96CF86921F460410143A96448
:1041000004E000F02AF9F2E70124A04631780A071A
:104110000ED53868B0F5805F04D100F01EF908B103
:104120004FF00108696C386821F44051014369641B
:104130003278D1060ED57869B0F5807F04D100F0D1
:104140000CF908B14FF00108A86C7A6920F44070AE
:104150001043A864D6E90001030319D53A6A32B1C5
:10416000B2F5803F0FD0B2F5003F03D00EE000F073
:10417000F9F8044620000AD1A96C386A21F44031CC
:104180000143A96404E000F0E8F8F2E70124A04646
:10419000D6E9000143031BD57A68B2F5801F06D02B
:1041A000B2F5001F0ED0B2F5401F02D00EE000F0B5
:1041B000CAF820000BD1696C786821F440110143E2
:1041C000696405E000F0C4F80446F2E70124A04663
:1041D000D6E90001C20317D5336D1BB1B3F5803F9B
:1041E0000BD00FE000F0AFF820000CD1E96B306D80
:1041F00021F480310143E96306E0022100F0B3F8C5
:104200000446F1E70124A046D6E90001820004D566
:1042100000F0A3F808B14FF00108D6E900018203CD
:104220001CD5D6F880306BB1B3F5807F06D0B3F5DE
:10423000007F18BFB3F5407F04D00DE0EA6942F477
:104240000032EA61220008D16B6CD6F8802023F49A
:10425000407313436B6401E00124A046C20205D5FC
:104260002B6C726F23F0004313432B64C40005D5FD
:104270002B687A6B23F4804313432B60840205D5AB
:104280002B6CF26E23F0807313432B64420007D52E
:104290002C6824F400442C602B68BA6B13432B6009
:1042A000002805D5EB6B726D23F040531343EB638D
:1042B000040205D56B6CBA6823F4400313436B64A6
:1042C00011F0010104D000F04DF8010018BF804644
:1042D000D6E9000111F0020305D0012100F043F8F6
:1042E000010018BF8046D6E9000111F0040305D093
:1042F000022100F038F8010018BF8046D6E900011D
:1043000011F0080305D0002100F023F8010018BFC8
:104310008046D6E9000111F0100304D000F018F82F
:10432000010018BF8046D6E9002313F0200102D017
:1043300000F013F820B9B8F1000F08BF002000D03A
:104340000120BDE8F087E86940F40030E86170477B
:10435000012106F1280000F079B9022106F12800B8
:1043600000F074B9002106F1080000F019B900004E
:104370001044025880B500F0C4FBDFF8E033DFF8EA
:10438000E0131A68C2F30212895C01F01F01C840F1
:1043900002BD000030B500F0C4F8C2F30015DA6BBE
:1043A000C1F3053100F0D4F826D000F073F802D044
:1043B000022C0FD011E000F0C1F805D500F0B7F8DD
:1043C0009A6B00F0D5F802E0996B00F06BF800F002
:1043D0005CF807E09FED6D2A01E09FED6D2A996B77
:1043E00000F06AF8996B00F085F8996B00F071F8AD
:1043F000996B00F004F801E000F0B4F842E0C1F37A
:10440000066100EE901AB8EE601AF7EE000A71EE3F
:10441000200A80EE200ABCEEC00A704730B500F0DA
:1044200080F8C2F300255A6CC1F3055100F090F8F2
:1044300026D000F02FF802D0022C0FD011E000F0AF
:104440007DF805D500F073F81A6C00F091F802E0E1
:10445000196C00F027F800F018F807E09FED4B2AE0
:1044600001E09FED4B2A196C00F026F8196C00F062
:1044700041F8196C00F02DF8196CFFF7C0FF01E04E
:1044800000F070F880ED020A30BDB8EE411A31EE4E
:10449000001A704714F0030400EE901AF8EE600A58
:1044A00070470000DFED3B1AC1EEA00AC1F308011E
:1044B00001EE101A70470000DFED371AC2EE200A35
:1044C000C1F3080101EE101AB8EE411A00EE211AEC
:1044D0007047C1F3064100EE901AB8EE601AF7EE8D
:1044E000000A71EE200AC0EE200AFCEEE00AC0EDE0
:1044F000010A7047B7EE000A31EE000A20EE800A8A
:10450000C1F3462100EE901AB8EE601AF7EE000AE9
:1045100071EE200AC0EE200AFCEEE00AC0ED000AAF
:104520007047DFF834329C6A996ADA6A70471A6811
:10453000DFF82012C2F3C102D14070471A689FED24
:10454000161A20EE010A940670470000004802582F
:10455000C2F3CC025543002900EE105AB8EE400ACF
:104560007047000000239FED0D0A03604360704711
:1045700001EE101AB8EE411AC1EE200AC2F3080289
:1045800001EE102A70470000CFFFFF00001BB74B61
:104590000024744A0024744C00000039000000001C
:1045A000F8B500F0AFF801D10120F2BD306820F07D
:1045B000806000F0AFF807463168080106D5FDF7C6
:1045C000D5F8C01B0328F7D30320F2BDB06A2968D1
:1045D00020F47C3040EA013000F09FF8B063F16ACB
:1045E000686921F0C00100F0B0F8A86921F020014D
:1045F00000F0ABF821F01001F162F06B00F07CF8F4
:10460000F063F06A40F01000F0621CB9F06A40F408
:10461000002004E0012C04D1F06A40F48010F06224
:1046200003E0F16A41F40011F162306840F080600B
:1046300000F070F804463168080105D4FDF796F8DB
:10464000001B0328F7D3BFE70020F2BDF8B500F048
:1046500059F801D10120F2BD306820F0805000F0FF
:1046600059F807463168880006D5FDF77FF8C01B6A
:104670000328F7D30320F2BDB06A296820F07C70CC
:1046800040EA015000F049F83064F16A686921F4A9
:10469000406100F05AF8A86921F4007100F055F863
:1046A00021F48071F162706C00F026F87064F06A99
:1046B00040F48070F0621CB9F06A40F4800004E0BD
:1046C000012C04D1F06A40F40000F06203E0F16ACA
:1046D00041F08071F162306840F0805000F01AF8CB
:1046E00004463168880005D4FDF740F8001B032814
:1046F000F7D3BFE70020F2BDE9696FF3CF0040EACE
:10470000C10070470546144EB06A0C4600F0030025
:10471000032870473060FDF729B8B062A96868685F
:10472000EA68491E4902401EC0F30800521E01F407
:104730007E4112040843296902F4FE021043491E17
:10474000090601F0FE41084370470143F162F16A36
:10475000704700000090D0030044025820440258E3
:10476000C0F000082DE9F0410400884662D0DFF86F
:104770005064326802F00F02424506D200F0E0F8C1
:10478000306800F00F00404554D12178DFF83454F0
:10479000480706D52069A96901F07001814200F03F
:1047A000E3F82178080706D56069E96901F070012E
:1047B000814200F0D2F82178C8060AD5A069EA69DA
:1047C00002F4E062824204D2E96921F4E061084324
:1047D000E861227890060AD5E0692A6A02F0700240
:1047E000824204D2296A21F07001084328622278AB
:1047F000900706D5E068AA6902F00F02824200F035
:10480000A5F82278D00731D5A969A06821F4706194
:104810000143A9616068022802D129688A0308E07F
:10482000032802D129688A0103E0012803D12968FD
:10483000C90503D430E02B685A072DD52969C9086A
:1048400040EAC1002861FCF791FF074628696268C9
:1048500000F03800B0EBC20F08D0FCF787FFC01B98
:1048600041F289318842F1D3032067E02278900732
:1048700006D5E068AA6902F00F02904200F066F8DF
:10488000306800F00F00804508D200F059F8326817
:1048900002F00F02424501D001204FE0207842078C
:1048A00006D52069A96901F07001884200F05CF822
:1048B0002078020706D56069E96901F07001884235
:1048C00000F04BF82178C8060AD5A069E96901F41F
:1048D000E061884204D2EA6922F4E0621043E861B0
:1048E000207882060AD5E069296A01F070018842C1
:1048F00004D22A6A22F070021043286200F082F883
:10490000AA69DFF8D412C2F303228B5CAC69DFF82A
:10491000C05204F00F040A5D03F01F03D840DFF813
:10492000A83202F01F0220FA02F119602860DFF8B5
:104930009C020068BDE8F04100F060B9BDE8F0817C
:104940003168090948EA01113160704704D2A96948
:10495000090940EA0110A861704704D2EA6922F00F
:1049600070021043E861704704D2AA6922F0700215
:104970001043A8617047F8B50E4686B01446DFF8BC
:104980005C52DFF85C12E8B90A68DFF8580242F0BE
:1049900001020A6009684FF4807201F0010105917B
:1049A000059B0221009201910021032302910491B1
:1049B0006946039300F06AF92A6822F0FE721643F2
:1049C00026431CE008684FF40072022740F0040000
:1049D00008600968844801F004010591059B009274
:1049E000002203230197039369460292049200F088
:1049F0004DF9286820F07E40064346EAC4162E6032
:104A000007B0F0BD30B56F4B7248196911F038012D
:104A100004D010290AD018290AD070E01A68940628
:104A20006ED51968C1F3C101C84030BD6F4830BDB3
:104A30009C6A996ADD6A5A6B05F00105C1F305119C
:104A4000C2F3CC025543002900EE105AB8EE400ADA
:104A500053D014F0030400EE901AF8EE600A02D06E
:104A6000022C23D025E019689FED511A20EE010A8F
:104A70008A0609D51968C1F3C101C84001EE100AC0
:104A8000186BB8EE411A02E0186B9FED4A1AC1EE9E
:104A9000200AC0F3080001EE900AF8EE611A71EEE8
:104AA000801AB7EE000A31EE800A15E09FED422A27
:104AB00001E09FED422A186BDFED3D1AC2EE200A9D
:104AC000C0F3080001EE100AB8EE411A00EE211AF8
:104AD000B7EE000A31EE000A186B20EE800AC0F330
:104AE0004620401C00EE900AF8EE600A80EE200A94
:104AF000BCEEC00A10EE100A30BD002030BD3C48AC
:104B000030BD10B5FFF77EFF3A49334A0B6809689C
:104B1000C3F30323D45C2E4B01F00F0104F01F04F8
:104B2000E0401860525C284902F01F02D040086043
:104B300010BD80B5FFF7E5FF00F00FF8C2F30212D9
:104B400006E080B5FFF7DDFF00F007F8C2F30222B0
:104B5000895C01F01F01C84002BD274B1E491A683D
:104B6000704710B53F2202601C4A146804F0070425
:104B70004460936803F470638360946804F00F04E6
:104B8000C460936803F070030361D46804F0700498
:104B90004461D36803F4E06383611269084B02F057
:104BA0007002C261186800F00F00086010BD0000BC
:104BB000000000390024744C001BB74B0024744AD9
:104BC00000200052004402581C0000201400002065
:104BD000180000200090D003C0F0000810440258D4
:104BE000E0440258000002580008025800366E01E6
:104BF00000093D00184402581C44025810B50446F0
:104C0000102C8AB036D2002221461C2000F073F905
:104C10001C2000F08FF9194919480C60026842F015
:104C200001020260006800F001000090009902A8F3
:104C300001A9FFF796FF079810B9FFF77AFF02E086
:104C4000FFF777FF40000F4C4FF080430E49236081
:104C5000B0FBF1F140F2E732491E0023E2606160EF
:104C600020462361A36000F0B9F918B9204600F08E
:104C7000C2F900E001200AB010BD000014000020BD
:104C8000E8440258ACB4012040420F002DE9F84F2F
:104C90000027DFF8FC814FF0B045DFF8F8A10246AD
:104CA0000B4630E0DFF8F041A24214BF0A24092489
:104CB0008C4044EA0E04DFF8E411C64341F82C406E
:104CC00029685C683140E40248BF01432960696893
:104CD0005C683140A40248BF01436960D8F8041001
:104CE0005C683140A40348BF0143C8F80410D8F8F9
:104CF000001006EA010C5968C90348BF40EA0C0CD1
:104D0000C8F800C07F1C186830FA07F100F0A980CD
:104D10000121B9400840F5D04FEA470B032404FABB
:104D20000BF46FEA040C5C6804F00306012E1CBF50
:104D300004F00304022C14D1D2F808E0DC680CEA79
:104D40000E0604FA0BF444EA060EC2F808E0D2F8A4
:104D500004E05C68C4F30014BC402EEA0101214366
:104D600051601C79B90004F00304032C21D0D2F85F
:104D70000CE09C680CEA0E0604FA0BF444EA060EFA
:104D8000C2F80CE01C7904F00304022C11D1FC08D9
:104D90000F2602EB840E01F01C04A640DEF82090E2
:104DA00029EA06091E6906FA04F444EA0904CEF861
:104DB0002040D2F800E01E7906F0030606FA0BF652
:104DC0000CEA0E0446EA040BC2F800B05C6814F466
:104DD000403F97D0DAF800404FEA970C01F00C0101
:104DE0000F268E4044F00204CAF80040DAF800E0D2
:104DF0000EF0020ECDF800E0009CDFF8A0E05EF8B7
:104E00002CE0274CA2422EEA060E08BF002427D031
:104E1000244CA24208BF012422D0234CA24208BF46
:104E200002241DD0214CA24208BF032418D0204EDA
:104E3000B24208BF042413D01E4CA24208BF05246E
:104E40000ED01D4CA24208BF062409D01B4CA24222
:104E500008BF072404D01A4CA2427FF423AF0824D1
:104E600026E7BDE8F18F0069084018BF0120C0B2F5
:104E7000704702B9090481617047124903460A6804
:104E80001A421CBF0B6000F007BE70470000000014
:104E900080000058F44402580024025808040058C6
:104EA000000002580004025800080258000C025882
:104EB000001002580014025800180258001C025832
:104EC00000200258880000580A01010002D43D4B1E
:104ED0005A5470473C4801F00F01014401F8042C7A
:104EE00070473A490A6860F30A2240F2FA5060F3C8
:104EF0001F420A60704770B5344C23680124C3F325
:104F00000223C3F10705052D2FBF0F26C3F10706A6
:104F100004FA06F6761E1D1D072D34BF0023DB1E86
:104F20003140994004FA03F35B1E1A401143BDE877
:104F30007040C9E7010007D4012200F01F018A4038
:104F4000234B400943F820207047BFF35F8F21486F
:104F50000021026822F480320260016770471D4917
:104F600040F001000867086840F480300860BFF333
:104F70004F8FBFF36F8F704710B5427816490A60A4
:104F80008B685B085B008B6042684A60C27A037B77
:104F9000847A120642EA0372437B42EAC442847B6B
:104FA00042EA8342C37B42EA4442447A42EA0342F1
:104FB000037A007842EA042242EA430202438A600A
:104FC00010BD000000E400E018ED00E00CED00E092
:104FD00000E100E024ED00E098ED00E038B50400C9
:104FE00001D1012032BD00F080F818B900F079F845
:104FF00000F0E7FD4BE010B590F83D10012901D01D
:10500000012010BD022280F83D200268D16841F0E5
:105010000101D1600168DFF86C22914218BFB1F143
:10502000804F17D0DFF86042A1421CBFDFF85C322E
:1050300099420FD0DFF8582291421CBFDFF854424A
:10504000A14207D0DFF8503299421CBFDFF8682236
:10505000914208D100F00EF818BFB2F5803F07D09A
:1050600000F00EF804E00B461846196800F028F826
:10507000002010BD8968DFF84C220A40062A7047DC
:1050800001680A6842F001020C4622607047022063
:10509000211D6870206800F002FB012201212A73A3
:1050A0000120A970E8702A716971A871EA712972EA
:1050B0006872AA72E9726870002032BD02461168F7
:1050C00041F001010160704738B5040001D10120B1
:1050D00032BD00F00AF818B900F003F800F0C4FD82
:1050E000D5E7002120462970704704F13C05687817
:1050F0007047F8B5044604F13E0009B902780FE0A4
:10510000042908BF42780BD0082908BF827807D04D
:105110000C2908BFC27803D010290CBF027942794C
:10512000012A01D00120F2BD11B90222027014E05F
:10513000042902D1022343700FE0082902D1022280
:1051400082700AE00C2902D10223C37005E0102905
:1051500007BF022202710223437100F0C5F800F07C
:1051600036F818BF904208D088421FBFDFF8587148
:10517000B842DFF85861B04203D1456C45F40045B0
:1051800045642068984218BFB0F1804F0FD03E4E62
:10519000B0421CBF3D4DA84209D000F015F818BF21
:1051A000904204D000F083F818BF884208D100F084
:1051B00095F818BFB1F5803F04D000F00EF801E07B
:1051C000FFF77CFF0020F2BD314B9842704720680A
:1051D0002C4B39492F4A984270472168086840F0A3
:1051E00001000B4618607047F8B500F043F800F076
:1051F0003AF81CBF274EB04208D000F05FF81FBF3E
:10520000DFF8C470B842314EB04206D1036A13428F
:1052100004BF066A0E4200F05BF800F020F804BFFD
:105220001A6A0A4200F03AF814B90122027014E036
:10523000042C02D1012141700FE0082C02D101227F
:1052400082700AE00C2C02D10121C17005E0102C03
:1052500007BF01220271012141710020F2BD2B68BC
:10526000186A10427047286840F2444141F2111216
:10527000B842704705460C4628680022014F00F0EE
:10528000FDBB000000000140000400400008004099
:10529000000C0040000401400018004004D11968CF
:1052A000184649084900016005F13E007047DFF8E3
:1052B000942090427047000000400140DFF83030F9
:1052C0009842704707000100004401400048014037
:1052D00003D1436C23F40043436470478068DFF8D4
:1052E00068100140062970472068012200F0C6BB03
:1052F0000040014070B504000E4601D1012070BD90
:10530000FFF7F3FE18B9FFF7ECFE00F0AEFC022049
:10531000211D6870206800F0C2F921680122012374
:10532000086820F008000860206801680E43012129
:10533000066001202A73AB70E8702A726972687087
:10534000002070BD0018004007000100F8B50446B9
:105350002068C5680669B10714D5AA0712D56FF091
:105360000203012103612177806910F0030F2046B9
:1053700002D000F07BFC03E000F079FC00F087F83D
:1053800000202077710715D5680713D520686FF0C6
:105390000401022201612277806910F4407F2046D7
:1053A00002D000F063FC03E000F061FC00F06FF855
:1053B00000202077310715D5280713D520686FF016
:1053C0000801042201612277C06910F0030F204612
:1053D00002D000F04BFC03E000F049FC00F057F86D
:1053E00000202077F10615D5E80613D520686FF068
:1053F0001002082102612177C06910F4407F204625
:1054000002D000F033FC03E000F031FC00F03FF884
:105410000023237706F0010205F001010A4206D0BD
:1054200023686FF0010720461F6100F0A5FD16F408
:10543000025F08D02A0606D520686FF40251016188
:10544000204600F0A2FDF30508D52A0606D52068FF
:105450006FF480710161204600F098FD720608D556
:105460006B0606D520686FF040010161204600F010
:105470008EFDB1060AD5AA0608D521686FF0200076
:1054800008612046BDE8F24000F082BDF1BD204633
:1054900000F07FBD002084F83C002846704770B5BE
:1054A00000F085F801D1022070BD012084F83C0095
:1054B00052B1042A1AD0082A2BD00C2A3BD0102A29
:1054C0004CD0142A5CD06EE02068314600F042F9DE
:1054D00021688A6942F008028A61886920F0040024
:1054E00088618A69306902438A615DE020683146DB
:1054F00000F072F92068816941F40061816182697C
:1055000022F4806282618169326941EA022181610B
:105510004AE02068314600F09FF92168CA6942F0EC
:105520000802CA61C86920F00400C861CA6930690C
:105530000243CA6138E02068314600F0C6F92068AD
:10554000C16941F40061C161C26922F48062C26133
:10555000C169326941EA0221C16125E02068314612
:1055600000F0DCF921684A6D42F008024A65486D96
:1055700020F0040048654A6D306902434A6513E033
:105580002068314600F0F4F92068416D41F4006173
:105590004165426D22F480624265416D326941EAA3
:1055A0000221416500E00125FFF774FF70BD04464C
:1055B0000E4694F83C10002501297047F8B50446C2
:1055C00004F13C0632780025012A01D10220F2BD07
:1055D000012002223070DFF84C04727023689A6850
:1055E00002409A600868002818BF102841D020287F
:1055F00018BF30283DD0402837D050282AD0602806
:105600002CD0702817D0B0F5805F38D0B0F5005F8F
:1056100018D0B0F5801F18BFB0F1101F29D0DFF8E7
:105620000874B8421FBFDFF80474B842DFF8007492
:10563000B8421ED022E000F028F82168886840F0C7
:10564000770005E000F021F82168886840F4804088
:10565000886014E000F01FF850210BE0CA68496828
:10566000206800F0C5F9602104E000F014F8402142
:1056700000E00146206800F0CDF900E0012501219D
:105680000020717030702846F2BDCB684A68896886
:10569000206800F0E9B9CA684968206897E12DE9F7
:1056A000F043DFF890C30368DFF88C43DFF88C53D6
:1056B000DFF88C63DFF88C83DFF88C93DFF88C23C2
:1056C000DFF88CE3604518BFB0F1804F07D070451C
:1056D00018BF904203D0484518BF40450DD123F074
:1056E00070074B683B43604518BFB0F1804F0CD04A
:1056F00070451CBF9042484507D0404518BFB04296
:1057000003D0A84218BFA04203D123F44072CB6853
:1057100013434A6923F08003134360450360D1F8C3
:1057200008E0C0F82CE00B68836218BF404504D045
:10573000B0421CBFA842A04201D10A690263012104
:1057400041610369DA0703D501694908490001612C
:10575000BDE8F0832DE9F041036A026ADFF8D4E284
:10576000DFF8D482DFF8D872DFF8D8C252085200CE
:105770000262446886690D68DFF8D82223F00203CC
:10578000164035438E681E43DFF8B032704518BFAF
:10579000604504D0B8421CBF984240450DD1CA684C
:1057A00026F00806164326F00406704518BF60452B
:1057B00005D0B84218BF984201D0404505D14B6989
:1057C00024F4407423438C691C4344608561496818
:1057D00041630662BDE8F081F0B5056A026ADFF850
:1057E0007842DFF8607222F0100202624368826938
:1057F0000E6825F0200514408A6844EA062445EA2C
:105800000215DFF83022904218BFB84208D1CE68A6
:1058100025F08005904245EA061525F040050DD09B
:10582000B8421CBFDFF81872B84207D0DFF80C622C
:10583000B0421CBFDFF80022904206D14E698A694F
:1058400023F44063164343EA860343608461496856
:1058500081630562F0BD0000F0B5046A026A22F4BB
:10586000807202624368C6690D688F68DFF8E421C0
:1058700024F400741640354344EA07246D4A714FFE
:10588000904218BFB84208D1CE6824F40064904218
:1058900044EA062424F480640AD0B8421CBF684F4E
:1058A000B84205D0654EB0421CBF634A904206D153
:1058B0004E698A6923F44053164343EA0613436052
:1058C000C5614968C1630462F0BDF0B5036A026A4C
:1058D00022F4805202624468C6690D685E4A8F688D
:1058E00023F4005300F06EF843EA0733A8421CBFCC
:1058F000544EB04207D0524FB8421FBF4F4DA8423E
:105900004D4EB04204D14D6924F4804444EA8514DC
:105910004460C261496801640362F0BDF0B5046A85
:10592000026A22F4803202624368456D4B4A8F68F6
:1059300024F4003415400A682A433E4D44EA0744E3
:10594000A8421CBF3F4EB04207D03D4FB8421FBFD8
:105950003A4DA842384EB04204D14D6923F4803309
:1059600043EA052343604265496881650462F0BDEE
:10597000F0B5036A026A22F4801202624468466D3E
:105980000D68374A8F6823F4001300F01BF843EAD0
:105990000753A8421CBF2B4EB04207D0284FB84235
:1059A0001FBF264DA842244EB04204D14D6924F4B5
:1059B000802444EA8524446042654968C1650362E5
:1059C000F0BD0000324042EA05221A4D704730B562
:1059D000036A056A6D086D000562846923F00A0395
:1059E000194324F0F00444EA02148461016230BDDA
:1059F00030B5036A056A25F010050562846923F055
:105A0000A00343EA011324F4704444EA023484619D
:105A1000036230BD8368134A1340194341F0070104
:105A2000816070478800CEFF200010003000100019
:105A300040001000000001400048014000440140C7
:105A40000040014000040140000C004000080040FC
:105A5000000400408CFFFEFFFF8CFFFE8FFFFEFF67
:105A6000FF8FFFFE8FFFCFFF10B5846824F47F44C3
:105A70002143114341EA0321816010BD30B5046A1E
:105A800001F01F0101238B4002FA01F19C430462E3
:105A9000056A2943016230BD80B50A2000F014F880
:105AA00080210448FFF7DFF9012802D101210248D3
:105AB000017001BD00000258CEB60120634908689C
:105AC00040F0100008607047614A41F26F7328216E
:105AD000936248430023D062506940F00100506156
