:020000040800F2
:1000000090A80020F9890008598800085B8800083A
:100010005D8800085F880008618800080000000013
:1000200000000000000000000000000063880008DD
:1000300065880008000000006788000869880008DB
:10004000318A0008358A0008398A00083D8A00088C
:10005000418A0008458A0008498A00084D8A00083C
:10006000518A0008558A0008598A000871880008DA
:100070005D8A0008618A0008658A0008698A0008AC
:100080006D8A0008718A0008758A0008798A00085C
:100090007D8A0008818A0008858A00089D880008FA
:1000A000898A00088D8A0008918A0008958A0008CC
:1000B000998A00089D8A0008A18A0008A58A00087C
:1000C000A98A0008AD8A0008B18A0008B58A00082C
:1000D000B98A0008BD8A0008C18A0008C58A0008DC
:1000E000C98A0008CD8A000800000000D18A0008F3
:1000F000D58A0008D98A0008DD8A0008E18A00084C
:10010000E58A0008E98A0008ED8A0008F18A0008FB
:10011000F58A0008F98A0008FD8A00087B88000833
:10012000018B0008058B0008098B00080D8B000867
:10013000118B0008158B0008198B00081D8B000817
:1001400000000000000000000000000000000000AF
:10015000218B0008258B0008298B00082D8B0008B7
:10016000318B0008358B0008398B00083D8B000867
:10017000418B0008458B0008498B000800000000F7
:100180004D8B0008518B0008558B0008598B0008D7
:10019000858800085D8B0008618B0008658B00086E
:1001A000698B00086D8B0008718B0008758B000847
:1001B000798B00087D8B0008818B0008858B0008F7
:1001C000898B00088D8B0008918B0008958B0008A7
:1001D000998B00089D8B0008A18B0008A58B000857
:1001E000A98B0008AD8B0008B18B0008B58B000807
:1001F000B98B0008BD8B0008C18B0008C58B0008B7
:10020000C98B0008CD8B0008D18B0008D58B000866
:10021000D98B0008DD8B0008E18B0008E58B000816
:10022000E98B0008ED8B0008F18B0008000000004E
:10023000F58B0008F98B000800000000FD8B00081A
:10024000018C0008058C0008098C00080D8C000842
:10025000118C0008158C0008198C00081D8C0008F2
:10026000218C0008258C0008298C00082D8C0008A2
:10027000318C0008358C0008398C00080000000023
:100280003D8C0008418C0008458C000800000000EF
:1002900000000000498C00082DE9F843040001F03B
:1002A000CBFC0700002C01D1012088E2DFF8148587
:1002B000206840454AD02168DFF80C05814245D0CE
:1002C0002168DFF80805814240D02168DFF8000589
:1002D00081423BD02168DFF8FC04814236D021689E
:1002E000DFF8F404814231D02168DFF8F004814264
:1002F0002CD02168DFF8E804814227D02068DFF89D
:10030000E414884222D02168DFF8DC0481421DD049
:100310002168DFF8D804814218D02168DFF8D004C2
:10032000814213D02168DFF8CC0481420ED02168CD
:10033000DFF8C404814209D02168DFF8C00481429B
:1003400004D02168DFF8B804814201D1012000E027
:100350000020C0B2002800F0E680606A0028022079
:1003600084F83500002084F83400206840454AD0E5
:100370002168DFF85404814245D02168DFF84C043D
:10038000814240D02168DFF8480481423BD0216897
:10039000DFF84004814236D02168DFF83C04814216
:1003A00031D02168DFF8340481422CD02168DFF895
:1003B0003004814227D02168DFF82804814222D00E
:1003C0002168DFF8240481421DD02168DFF81C0475
:1003D000814218D02168DFF81804814213D02168C7
:1003E000DFF8100481420ED02168DFF80C0481424E
:1003F00009D02168DFF80404814204D02168DFF8C5
:100400000004814206D1206801684908490020683B
:10041000016005E020680168490849002068016022
:1004200020680068C0070BD501F006FCC01B062839
:10043000F6D320206065032084F835000120BEE15A
:1004400020680168DFF8BC030140A0680143E06850
:1004500001432069014360690143A0690143E069E8
:100460000143206A0143606A042804D1E06A014321
:100470000800216B0143DFF890030068000C0004C2
:10048000B0F1005F1FD36068292802D360682F286D
:1004900011D360683F2802D3606843280BD360689B
:1004A000472802D36068492805D360684F2804D3E1
:1004B0006068532801D2012000E00020C0B200286B
:1004C00001D051F48011206801602068D0F81490A8
:1004D0005FEAD9095FEAC909606A50EA0909606AF6
:1004E000042811D1A06A50EA0909E06A00280BD05B
:1004F000200001F079FA002806D040206065012034
:1005000084F8350001205AE12068C0F814902000DA
:1005100001F0F2F905003F2094F85C1011F01F0182
:100520008840A860A3E0DFF8E4022168814222D07D
:100530002268DFF8DC128A421DD02168DFF8D4225D
:10054000914218D02268DFF8D0128A4213D0226874
:10055000DFF8C8128A420ED02168DFF8C422914227
:1005600009D02268DFF8BC128A4204D02268DFF882
:10057000BC128A4201D1012100E00021C9B2002948
:100580006ED02168814222D02168DFF88402814246
:100590001DD02168DFF87C02814218D02168DFF885
:1005A0007802814213D02168DFF8700281420ED0B8
:1005B0002168DFF86C02814209D02168DFF864020B
:1005C000814204D02168DFF86402814201D1012018
:1005D00000E00020C0B20028022084F8350000208E
:1005E00084F83400206800686FF31010A168402977
:1005F00002D15FF0100907E0A168802902D14FF411
:10060000804901E05FF0000959EA0009E06859EA11
:10061000D009206959EAD009606959EAD009A0696E
:1006200059EAD009E06959EAD009206A59EA101953
:100630002068C0F800902168DFF8EC014118142010
:10064000B1FBF0F08000E065200001F055F90600F4
:10065000012194F85C0010F01F008140716006E0F9
:1006600040206065032084F835000120A7E0206861
:10067000404572D02168DFF8500181426DD0216879
:10068000DFF84801814268D02068DFF844118842D1
:1006900063D02168DFF83C0181425ED02168DFF839
:1006A0003801814259D02168DFF83001814254D0AD
:1006B0002168DFF82C0181424FD02168DFF8240146
:1006C00081424AD02168DFF82001814245D021686B
:1006D000DFF81801814240D02168DFF8140181421F
:1006E0003BD02168DFF80C01814236D02168DFF869
:1006F0000801814231D02168DFF8000181422CD00D
:100700002168DFF8FC00814227D02168DFF8FC0077
:10071000814222D02068DFF8F81088421DD021687D
:10072000DFF8F000814218D02168DFF8EC00814248
:1007300013D02168DFF8E40081420ED02168DFF891
:10074000E000814209D02168DFF8D800814204D05E
:100750002168DFF8D800814201D1012000E00020AB
:10076000C0B2002825D0200001F08BF9A0688028B5
:1007700001D100206060217901F0FF01206E01604D
:10078000A06E616E4860606800280CD0606809281F
:1007900009D2200001F0E2F90021E06E0160616FF2
:1007A000206F416005E00020E06600202067002007
:1007B000606700206065012084F835000020BDE8F6
:1007C000F283000010000240280002404000024076
:1007D000580002407000024088000240A000024021
:1007E000B8000240100402402804024040040240C5
:1007F000580402407004024088040240A0040240F1
:10080000B80402403F8010FE0010005C08540258FB
:100810001C54025830540258445402585854025838
:100820006C54025880540258F8ABFDA794540258F7
:1008300038B50400002C01D10120BFE194F8350047
:10084000022803D0802060650120B7E1DFF87C0337
:10085000216881424AD02268DFF874138A4245D069
:100860002268DFF870138A4240D02268DFF86813EC
:100870008A423BD02268DFF864138A4236D022686D
:10088000DFF85C138A4231D02268DFF858138A42BD
:100890002CD02268DFF850138A4227D02268DFF874
:1008A0004C138A4222D02268DFF844138A421DD0BA
:1008B0002268DFF840138A4218D02268DFF8381324
:1008C0008A4213D02268DFF834138A420ED022689D
:1008D000DFF82C138A4209D02268DFF828138A42F5
:1008E00004D02268DFF8E0128A4201D1012100E041
:1008F0000021C9B200295DD0042184F83510216897
:10090000814249D02168DFF8C802814244D0206882
:10091000DFF8C01288423FD02168DFF8BC02814274
:100920003AD02168DFF8B402814235D02168DFF87F
:10093000B002814230D02168DFF8A80281422BD07A
:100940002168DFF8A402814226D02168DFF89C02EA
:10095000814221D02168DFF8980281421CD02168B1
:10096000DFF89002814217D02168DFF88C028142C3
:1009700012D02168DFF8840281420DD02168DFF8AF
:100980008002814208D02168DFF87802814203D0DA
:1009900021688D48814206D12068016849084900D4
:1009A0002068016009E12068016849084900206861
:1009B000016002E121680A6832F00E0221680A60D3
:1009C0002168814249D02268DFF804128A4244D06B
:1009D0002268DFF800128A423FD02268DFF8F8115F
:1009E0008A423AD02268DFF8F4118A4235D0216871
:1009F000DFF8EC21914230D02168DFF8E821914204
:100A00002BD02168DFF8E021914226D02268DFF860
:100A1000DC118A4221D02268DFF8D4118A421CD02E
:100A20002268DFF8D0118A4217D02268DFF8C81197
:100A30008A4212D02268DFF8C4118A420DD022689F
:100A4000DFF8BC118A4208D02268DFF8B8118A4268
:100A500003D022685C498A4206D121680A6852089C
:100A6000520021680A6005E021680A6852085200B5
:100A700021680A60216881426FD02168DFF8500147
:100A800081426AD02168DFF84C01814265D021683B
:100A9000DFF84401814260D02168DFF840018142E3
:100AA0005BD02168DFF83801814256D02168DFF839
:100AB0003401814251D02168DFF82C0181424CD0B1
:100AC0002068DFF82811884247D02168DFF820012C
:100AD000814242D02168DFF81C0181423DD021686B
:100AE000DFF81401814238D02168DFF8100181421B
:100AF00033D02068DFF8081188422ED02168DFF853
:100B00000401814229D021682F48814225D02168E3
:100B1000DFF8F400814220D02168DFF8F000814244
:100B20001BD02168DFF8E800814216D02168DFF889
:100B3000E400814211D02168DFF8DC0081420CD052
:100B400021681F48814208D021681E48814204D094
:100B50002168DFF8C800814201D1012000E00020B7
:100B6000C0B200281DD0206E016831F48071206E63
:100B70000160A06D0500012194F85C0010F01F00D9
:100B800081406960A16E606E4160E06E002808D00F
:100B9000E06E016831F48071E06E0160616F206F7A
:100BA0004160012084F83500002084F83400206D75
:100BB000002802D02000216D8847002032BD0000AF
:100BC0006C54025880540258B8040240100002408D
:100BD00028000240400002405800024070000240DD
:100BE00088000240A0000240B80002401004024009
:100BF00028040240400402405804024070040240AD
:100C000088040240A0040240085402581C540258B0
:100C100030540258445402585854025894540258BC
:100C20002DE9F84F834600200090DFF8B4080068F3
:100C30004FF41651B0FBF1F5DBF85860DBF8587053
:100C4000D6F80080D7F80090DFF898A8DBF800000D
:100C5000504559D0DBF80010DFF88C08814253D0A2
:100C6000DBF80010DFF8840881424DD0DBF800107B
:100C7000DFF87C08814247D0DBF80010DFF8740809
:100C8000814241D0DBF80010DFF86C0881423BD094
:100C9000DBF80010DFF86408814235D0DBF8001083
:100CA000DFF85C0881422FD0DBF80010DFF8540831
:100CB000814229D0DBF80010DFF84C08814223D0B4
:100CC000DBF80010DFF8440881421DD0DBF800108B
:100CD000DFF83C08814217D0DBF80010DFF8340859
:100CE000814211D0DBF80010DFF8000C81420BD0FC
:100CF000DBF80010DFF8F80B814205D0DBF80010BC
:100D0000DFF8F00B814201D1012000E00020C0B2E9
:100D1000002800F0B38308219BF85C0010F01F004E
:100D200011FA00F018EA000F00F07F80DBF80000F5
:100D3000504559D0DBF80000DFF8AC27904253D083
:100D4000DBF80000DFF8A42790424DD0DBF800006C
:100D5000DFF89C27904247D0DBF80000DFF89427AB
:100D6000904241D0DBF80000DFF88C2790423BD066
:100D7000DBF80000DFF88427904235D0DBF8000074
:100D8000DFF87C2790422FD0DBF80000DFF87427D3
:100D9000904229D0DBF80000DFF86C27904223D086
:100DA000DBF80000DFF8642790421DD0DBF800007C
:100DB000DFF85C27904217D0DBF80000DFF85427FB
:100DC000904211D0DBF80000DFF8202B90420BD0CE
:100DD000DBF80000DFF8182B904205D0DBF80000AC
:100DE000DFF8102B904205D1DBF80000006810F00E
:100DF000040004E0DBF80000006810F008000028A0
:100E000013D0DBF80000006830F00400DBF80020AD
:100E100010609BF85C0010F01F008140B160DBF8AF
:100E2000540050F00100CBF854009BF85C1011F016
:100E30001F014046C840C00776D5DBF8000050458A
:100E400059D0DBF80010DFF8A006814253D0DBF860
:100E50000010DFF8980681424DD0DBF80010DFF873
:100E60009006814247D0DBF80010DFF88806814207
:100E700041D0DBF80010DFF8800681423BD0DBF880
:100E80000010DFF87806814235D0DBF80010DFF87B
:100E9000700681422FD0DBF80010DFF8680681422F
:100EA00029D0DBF80010DFF86006814223D0DBF8A0
:100EB0000010DFF8580681421DD0DBF80010DFF883
:100EC0005006814217D0DBF80010DFF84806814257
:100ED00011D0DBF80010DFF8140A81420BD0DBF8E8
:100EE0000010DFF80C0A814205D0DBF80010DFF8B3
:100EF000040A814205D1DBF80000406910F080004F
:100F000003E0DBF800000068002000280CD001217D
:100F10009BF85C0010F01F008140B160DBF85400CA
:100F200050F00200CBF8540004219BF85C0010F054
:100F30001F0011FA00F018EA000F75D0DBF800006E
:100F4000504559D0DBF80000DFF89C25904253D083
:100F5000DBF80000DFF8942590424DD0DBF800006C
:100F6000DFF88C25904247D0DBF80000DFF88425BD
:100F7000904241D0DBF80000DFF87C2590423BD066
:100F8000DBF80000DFF87425904235D0DBF8000074
:100F9000DFF86C2590422FD0DBF80000DFF86425E5
:100FA000904229D0DBF80000DFF85C25904223D086
:100FB000DBF80000DFF8542590421DD0DBF800007C
:100FC000DFF84C25904217D0DBF80020DFF844050D
:100FD000824211D0DBF80000DFF8102990420BD0DC
:100FE000DBF80000DFF80829904205D0DBF80000AC
:100FF000DFF80029904205D1DBF80000006810F00E
:10100000020003E0DBF800000068002000280BD09D
:101010009BF85C0010F01F008140B160DBF85400C9
:1010200050F00400CBF8540010219BF85C0010F045
:101030001F0011FA00F018EA000F00F0A280DBF8A0
:101040000000504559D0DBF80000DFF89C249042A6
:1010500053D0DBF80020DFF8940482424DD0DBF857
:101060000000DFF88C24904247D0DBF80000DFF866
:101070008424904241D0DBF80000DFF87C249042C9
:101080003BD0DBF80020DFF87404824235D0DBF877
:101090000000DFF86C2490422FD0DBF80000DFF86E
:1010A0006424904229D0DBF80000DFF85C249042F1
:1010B00023D0DBF80000DFF8542490421DD0DBF889
:1010C0000020DFF84C04824217D0DBF80000DFF884
:1010D0004424904211D0DBF80000DFF81028904241
:1010E0000BD0DBF80000DFF80828904205D0DBF8D1
:1010F0000000DFF80028904205D1DBF8000000680E
:1011000010F0080004E0DBF80000006810F00400B4
:10111000002836D09BF85C0010F01F008140B160C1
:10112000DBF800000068400316D5DBF8000000681B
:10113000000308D4DBF84000002822D05846DBF832
:10114000401088471DE0DBF84800002819D05846B9
:10115000DBF84810884714E0DBF800000068C005A1
:1011600007D4DBF80000016831F00801DBF800006B
:101170000160DBF84000002803D05846DBF840103F
:10118000884720219BF85C0010F01F0011FA00F046
:1011900018EA000F00F0DF80DBF80000504556D061
:1011A000DBF80000DFF84023904250D0DBF800006D
:1011B000DFF8382390424AD0DBF80000DFF8302314
:1011C000904244D0DBF80000DFF8282390423ED064
:1011D000DBF80000DFF82023904238D0DBF8000075
:1011E000DFF81823904232D0DBF80000DFF810233C
:1011F00090422CD0DBF80000DFF80823904226D084
:10120000DBF80000DFF80023904220D0DBF800007C
:10121000BE4A90421BD0DBF80000BD4A904216D077
:10122000DBF80000BB4A904211D0DBF80020DFF869
:10123000BC0682420BD0DBF80020DFF8B406824205
:1012400005D0DBF80020DFF8AC06824205D1DBF8E0
:101250000000006810F0100004E0DBF800000068F7
:1012600010F00200002876D09BF85C0010F01F0000
:101270008140B1609BF83500042835D1DBF80000CF
:10128000006830F01600DBF800100860DBF80000A2
:10129000406930F08000DBF800104861DBF8400066
:1012A000002803D1DBF84800002807D0DBF8000055
:1012B000006830F00800DBF8001008603F209BF861
:1012C0005C1011F01F018840B06001208BF83500E0
:1012D00000208BF83400DBF85000002803D058467B
:1012E000DBF850108847FFE2DBF80000006840039D
:1012F00016D5DBF800000068000308D4DBF84400D2
:10130000002828D05846DBF84410884723E0DBF853
:101310003C0000281FD05846DBF83C1088471AE0F4
:10132000DBF800000068C0050DD4DBF800000168A0
:1013300031F01001DBF80000016001208BF835006E
:1013400000208BF83400DBF83C00002803D058461E
:10135000DBF83C108847DBF85400002800F0C4821A
:10136000DBF85400C00740F17F8004208BF8350083
:10137000DBF8000050454DD0DBF800005A498842A8
:1013800048D0DBF800005949884243D0DBF8000020
:10139000574988423ED0DBF800005649884239D090
:1013A000DBF800005449884234D0DBF80000534990
:1013B00088422FD0DBF80010514881422AD0DBF858
:1013C00000005049884225D0DBF800004E49884291
:1013D00020D0DBF800004D4988421BD0DBF800002C
:1013E0004B49884216D0DBF800004A49884211D0A8
:1013F000DBF80000DFF8F41488420BD0DBF80000C3
:10140000DFF8EC14884205D0DBF80000DFF8E414C4
:10141000884208D1DBF80000006840084000DBF893
:101420000010086007E0DBF800000068400840009A
:10143000DBF8001008600098401C0090854204D33F
:10144000DBF800000068C007F5D4DBF80000006896
:10145000C00703D503208BF8350002E001208BF88C
:10146000350000208BF83400DBF84C00002800F039
:101470003B825846DBF84C10884735E2DBF8001019
:10148000DFF84405814229D0DBF80010DFF83C0585
:10149000814223D0DBF80010DFF8340581421DD0F3
:1014A000DBF80010DFF82C05814217D0DBF80010C4
:1014B000DFF82405814211D0DBF80010DFF81C05AD
:1014C00081420BD0DBF80010DFF81405814205D013
:1014D000DBF80010DFF80C0581421DD101201CE073
:1014E000040000201000024028000240400002409A
:1014F000580002407000024088000240A0000240F4
:10150000B800024010040240280402404004024097
:1015100058040240700402400020C0B2002800F0CD
:10152000E381DBF800000068040004209BF85C10F5
:1015300011F01F0110FA01F119EA010F00F0998072
:10154000610740F196809BF85C1011F01F01884004
:101550007860200415D5E00309D4DBF848000028A2
:1015600000F0C2815846DBF848108847BCE1DBF840
:101570004000002800F0B8815846DBF8401088474A
:10158000B2E1A0066BD4DBF80000504556D0DBF882
:101590000000DFF89C15884250D0DBF80000DFF82F
:1015A000941588424AD0DBF80000DFF88C15884299
:1015B00044D0DBF80000DFF8841588423ED0DBF829
:1015C0000000DFF87C15884238D0DBF80000DFF837
:1015D0007415884232D0DBF80000DFF86C158842C1
:1015E0002CD0DBF80000DFF86415884226D0DBF849
:1015F0000000DFF85C15884220D0DBF80000DFF83F
:10160000541588421AD0DBF80000DFF84C158842E8
:1016100014D0DBF80000DFF8C41588420ED0DBF8E8
:101620000000B249884209D0DBF80000B049884286
:1016300004D0DBF80000AF49884208D1DBF8000095
:10164000006830F00800DBF80010086007E0DBF805
:101650000000006830F00400DBF800100860DBF8E0
:101660004000002800F040815846DBF840108847D1
:101670003AE102209BF85C1011F01F0110FA01F111
:1016800019EA010F00F09F80A10740F19C809BF8B0
:101690005C1011F01F0188407860200415D5E0032C
:1016A00009D4DBF84400002800F01E815846DBF81E
:1016B0004410884718E1DBF83C00002800F0148152
:1016C0005846DBF83C1088470EE1A00671D4DBF8E1
:1016D0000000504556D0DBF80000DFF85414884273
:1016E00050D0DBF80000DFF84C1488424AD0DBF819
:1016F0000000DFF84414884244D0DBF80000DFF833
:101700003C1488423ED0DBF80000DFF834148842F5
:1017100038D0DBF80010DFF82C04814232D0DBF83F
:101720000000DFF8241488422CD0DBF80000DFF83A
:101730001C14884226D0DBF80000DFF8141488421D
:1017400020D0DBF80000DFF80C1488421AD0DBF858
:101750000000DFF80414884214D0DBF80010DFF832
:101760007C0481420ED0DBF800106048814209D031
:10177000DBF800105E48814204D0DBF800105D48C1
:10178000814208D1DBF80000006830F01400DBF87B
:101790000010086007E0DBF80000006830F00A0085
:1017A000DBF80010086001208BF8350000208BF872
:1017B0003400DBF83C00002800F096805846DBF847
:1017C0003C10884790E008219BF85C0010F01F0057
:1017D000814019EA010F00F08780200740F18480E2
:1017E000DBF80000504556D0DBF80010DFF840036E
:1017F000814250D0DBF80010DFF8380381424AD034
:10180000DBF80010DFF83003814244D0DBF8001031
:10181000DFF8280381423ED0DBF80010DFF8200318
:10182000814238D0DBF80000DFF81813884232D04C
:10183000DBF80010DFF8100381422CD0DBF8001039
:10184000DFF80803814226D0DBF80010DFF8000340
:10185000814220D0DBF80010DFF8F80281421AD074
:10186000DBF80010DFF8F002814214D0DBF8001042
:10187000DFF8680381420ED0DBF800101B4881427C
:1018800009D0DBF800101A48814204D0DBF80010C0
:101890001848814208D1DBF80000016831F01C01D2
:1018A000DBF80000016007E0DBF80000016831F0C0
:1018B0000E01DBF80000016001219BF85C0010F0D4
:1018C0001F00814079600120CBF8540001208BF883
:1018D000350000208BF83400DBF84C00002803D0E2
:1018E0005846DBF84C108847BDE8F18F8804024069
:1018F000A0040240B80402400268DFF8E4128A4201
:101900003BD002688A498A4237D0026889498A42B4
:1019100033D0026888498A422FD0026887498A42B8
:101920002BD0026886498A4227D0026885498A42BC
:1019300023D0026884498A421FD0026883498A42C0
:101940001BD0026882498A4217D0026881498A42C4
:1019500013D0026880498A420FD002689F498A42A8
:101960000BD002689F498A4207D002689E498A428A
:1019700003D002689D498A4201D1012100E0002183
:10198000C9B2002918D0027802F0FF02103A1821DB
:10199000B2FBF1F1974A11F00703D25CC26504294A
:1019A00005D30268920A9202121D826508E002685D
:1019B000920A9202826503E00168090A09028165C0
:1019C000806D704700000000085402581C540258F3
:1019D0003054025844540258585402586C54025817
:1019E0008054025894540258020000209169002942
:1019F00017D1916A002905D0022903D008D3032901
:101A00000DD00DE0D16AC90101D50121080036E0F1
:101A1000D16AB1F1C07F01D1012108002FE02EE091
:101A20002DE09169B1F5005F19D1916A002905D0C7
:101A3000022903D005D3032909D00FE001210800B2
:101A40001DE0D16AC90101D50121080017E0D16A62
:101A5000B1F1C07F01D10121080010E00FE0936ACD
:101A6000002B022B02D9DB1E03D008E00121080065
:101A700005E0D16AC90101D501210800FFE7C0B224
:101A8000704710B4026803685B498B421BD003683F
:101A90005A498B4217D0036859498B4213D00368C7
:101AA00058498B420FD0036857498B420BD00368CB
:101AB00056498B4207D0036855498B4203D00368CF
:101AC0004B498B4201D1012100E00021C9B200291C
:101AD00012D0037803F0FF03083B1421B3FBF1F3AA
:101AE0004C4911EB830101664B494166012413F017
:101AF0001F018C40846618E0037803F0FF03103B5D
:101B00001821B3FBF1F345498A4203D20F498A42B7
:101B100000D30833424911EB830101664149416614
:101B2000012413F01F018C40846610BC7047000034
:101B3000280002404000024058000240700002406D
:101B400088000240A0000240B80002401004024099
:101B5000280402404004024058040240017901F088
:101B6000FF01002939D0092937D20368224A93425C
:101B70001BD00368214A934217D00368204A93423E
:101B800013D003681F4A93420FD003681E4A934242
:101B90000BD003681D4A934207D003681C4A934246
:101BA00003D00368124A934201D1012200E00022CF
:101BB000D2B2002A06D01C4A12EB8102C2661B4A2E
:101BC000026705E01A4A12EB8102C266194A0267EF
:101BD000012311F1FF0293404367704770040240F4
:101BE0001000024088040240A0040240B8040240F1
:101BF00094540258188A0008085402581C54025879
:101C00003054025844540258585402586C540258E4
:101C1000805402580058025880580258B9040240B3
:101C20000008024080080240FC58025840590258FF
:101C3000FC0802404009024001480068704700BFAC
:101C400084A400202DE9F843804600260027D8E927
:101C50000001000134D5D8F86800002809D0B0F59B
:101C6000801F0DD0B0F5001F11D0B0F5401F15D06A
:101C700015E0DFF8041A086850F40030086010E03E
:101C8000022118F1080001F035F8060009E00221F0
:101C900018F1280001F0B6F8060002E001E001208A
:101CA00006003000C0B2002809D1DFF8D029116841
:101CB00031F44011D8F868000143116000E03700AA
:101CC000D8E90001C00532D5D8F85800002806D060
:101CD000022812D00AD3042817D015D316E0DFF853
:101CE0009819086850F40030086011E0002118F1DC
:101CF000080000F0FFFF06000AE0002118F12800AC
:101D000001F080F8060003E002E001E00120060097
:101D10003000C0B2002809D1DFF860291168C90875
:101D2000C900D8F858000143116000E03700D8E935
:101D30000001800535D5D8F85C00002809D040287E
:101D40000ED0802813D0C02818D0B0F5807F16D0D0
:101D500016E0DFF82419086850F40030086011E03C
:101D6000002118F1080000F0C5FF06000AE000217C
:101D700018F1280001F046F8060003E002E001E057
:101D8000012006003000C0B2002809D1DFF8EC289D
:101D9000116831F4E071D8F85C000143116000E093
:101DA0003700D8E90001400538D5D8F8A800002848
:101DB0000CD0B0F5001F10D0B0F5800F14D0B0F5E6
:101DC000C00F18D0B0F5000F16D016E0DFF8A81835
:101DD000086850F40030086011E0002118F1080094
:101DE00000F088FF06000AE0002118F1280001F049
:101DF00009F8060003E002E001E0012006003000DF
:101E0000C0B2002809D1DFF84C2A116831F4600112
:101E1000D8F8A8000143116000E03700D8E90001BC
:101E2000000538D5D8F8AC0000280CD0B0F1807F80
:101E300010D0B0F1007F14D0B0F1407F18D0B0F1D5
:101E4000806F16D016E0DFF83018086850F40030C4
:101E5000086011E0002118F1080000F04BFF0600B7
:101E60000AE0002118F1280000F0CCFF060003E092
:101E700002E001E0012006003000C0B2002809D1D4
:101E8000DFF8D029116831F0E061D8F8AC000143E7
:101E9000116000E03700D8E9000180012BD5D8F8A7
:101EA0004C00002815D0102804D0202809D0302854
:101EB0000ED00FE0DFF8C017086850F4003008605B
:101EC0000AE0022118F1080000F014FF060003E008
:101ED00002E001E0012006003000C0B2002809D174
:101EE000DFF87429116831F03001D8F84C00014353
:101EF000116000E03700D8E90001C00438D5D8F8F7
:101F0000600000280CD0B0F5805F10D0B0F5005F05
:101F100014D0B0F5405F18D0B0F5804F16D016E061
:101F2000DFF85417086850F40030086011E0002111
:101F300018F1080000F0DEFE06000AE0002118F1AA
:101F4000280000F05FFF060003E002E001E001204E
:101F500006003000C0B2002809D1DFF82027116840
:101F600031F4E041D8F860000143116000E037002F
:101F7000D8E90001800436D5D8F8640000280FD0D5
:101F8000B0F5803F0DD0B0F5003F11D0B0F5403F27
:101F900015D0B0F5802F13D0B0F5A02F11D011E0DF
:101FA00012E0012118F1080000F0A4FE06000BE089
:101FB000012118F1280000F025FF060004E003E0ED
:101FC00002E001E0012006003000C0B2002809D183
:101FD000DFF8A826116831F4E021D8F86400014345
:101FE000116000E03700D8E90001400436D5D8F888
:101FF000B00000280FD0B0F1805F0DD0B0F1005FCD
:1020000011D0B0F1405F15D0B0F1804F13D0B0F1D6
:10201000A04F11D011E012E0012118F1080000F0EA
:1020200069FE06000BE0012118F1280000F0EAFE2D
:10203000060004E003E002E001E0012006003000B9
:10204000C0B2002809D1DFF80C28116831F0E04156
:10205000D8F8B0000143116000E03700D8E9000172
:1020600000042AD5D8F87000002814D0B0F1805FA1
:1020700003D0B0F1005F07D00EE0DFF8FC15086870
:1020800050F40030086009E0012118F1080000F068
:1020900031FE060002E001E0012006003000C0B27F
:1020A000002809D1DFF8D425116831F04051D8F863
:1020B00070000143116000E03700D8E90001C00161
:1020C0002AD5D8F84800002814D002280AD002D314
:1020D00003280ED00FE0DFF8A015086850F4003098
:1020E00008600AE0022118F1080000F003FE060073
:1020F00003E002E001E0012006003000C0B2002849
:1021000009D1DFF85427116889088900D8F84800F8
:102110000143116000E03700D8E90001400279D5A1
:10212000DFF83897D9F8000050F48070C9F8000043
:10213000FFF782FD0500D9F80000C00506D4FFF7BF
:102140007BFD401B6528F6D3032006003000C0B29B
:1021500000285ED1DFF80897D9F8001011F440711B
:10216000D8F8B40010F44070814212D0D9F80000C1
:1021700030F440700400D9F8000050F48030C9F801
:102180000000D9F8000030F48030C9F80000C9F828
:102190000040D8F8B400B0F5807F0FD1FFF74CFDB8
:1021A0000500D9F80000800708D4FFF745FD401B63
:1021B00041F289318842F4D3032006003000C0B2D6
:1021C000002824D1D8F8B40010F44070B0F5407F56
:1021D0000DD1DFF89006016831F47C51D8F8B420B5
:1021E000DFF8843613EA12130B43036005E0DFF8CF
:1021F0007416086830F47C500860D9F80010D8F8DC
:10220000B4000005000D0143C9F8001002E03700DA
:1022100000E0370098F80000C00731D5D8F87C00FE
:1022200000280AD0082809D010280ED0182813D06A
:10223000202812D0282811D011E012E0012118F135
:10224000080000F057FD06000BE0012118F12800FE
:1022500000F0D8FD060004E003E002E001E0012008
:1022600006003000C0B2002809D1DFF8002611684E
:1022700031F03801D8F87C000143116000E03700EC
:1022800098F8000080072FD5D8F87800002808D0EB
:1022900002280ED006D3042813D011D3052811D05C
:1022A00011E012E0012118F1080000F023FD060002
:1022B0000BE0012118F1280000F0A4FD060004E065
:1022C00003E002E001E0012006003000C0B2002877
:1022D00009D1DFF898251168C908C900D8F8780035
:1022E0000143116000E0370098F8000040072FD547
:1022F000D8F89400002808D002280ED006D304286D
:1023000013D011D3052811D011E012E0012118F1EA
:10231000080000F0EFFC06000BE0012118F1280096
:1023200000F070FD060004E003E002E001E001209F
:1023300006003000C0B2002809D1DFF81825116866
:10234000C908C900D8F894000143116000E03700C3
:1023500098F80000800636D5D8F8900000280FD0F5
:10236000B0F1805F0DD0B0F1005F11D0B0F1405FEF
:1023700015D0B0F1804F13D0B0F1A04F11D011E0C3
:1023800012E0002118F1080000F0B4FC06000BE098
:10239000022118F1280000F035FD060004E003E0FA
:1023A00002E001E0012006003000C0B2002809D19F
:1023B000DFF8B824116831F0E041D8F8900001430B
:1023C000116000E0370098F80000400636D5D8F8D4
:1023D0009C0000280FD0B0F5806F0DD0B0F5006FD5
:1023E00011D0B0F5406F15D0B0F5805F13D0B0F5C7
:1023F000A05F11D011E012E0002118F1080000F0F8
:1024000079FC06000BE0022118F1280000F0FAFC2C
:10241000060004E003E002E001E0012006003000D5
:10242000C0B2002809D1DFF82C140A6832F4E05257
:10243000D8F89C0002430A6000E0370098F80000DA
:10244000000636D5D8F8A00000280FD0B0F5005F00
:102450000DD0B0F5804F11D0B0F5C04F15D0B0F50C
:10246000004F13D0B0F5204F11D011E012E0002141
:1024700018F1080000F03EFC06000BE0022118F104
:10248000280000F0BFFC060004E003E002E001E0E9
:10249000012006003000C0B2002809D1DFF8B413D3
:1024A0000A6832F46042D8F8A00002430A6000E0F3
:1024B000370098F80000000716D5D8F88400B0F56A
:1024C000805F08D1022118F1280000F09BFC002851
:1024D00001D001200700DFF894130A6832F440525B
:1024E000D8F8840002430A6098F80000C00616D5A8
:1024F000D8F89800B0F5807F08D1022118F12800A3
:1025000000F080FC002801D001200700DFF8442300
:10251000116831F44071D8F8980001431160D8E98E
:102520000001000329D5D8F8A400002806D0B0F592
:10253000803F0AD0B0F5003F0ED00EE0002118F128
:10254000080000F0D7FB060009E0022118F128007E
:1025500000F058FC060002E001E001200600300017
:10256000C0B2002808D1BB4A116831F44031D8F814
:10257000A4000143116000E03700D8E900014003E6
:102580002AD5D8F88800B0F5801F06D0B0F5001F16
:1025900009D0B0F5401F0DD00DE03749086850F460
:1025A0000030086009E0012118F1280000F02AFC41
:1025B000060002E001E0012006003000C0B2002861
:1025C00009D1DFF8A8120A6832F44012D8F888005E
:1025D00002430A6000E03700D8E90001C00325D5B6
:1025E000D8F85000002803D0B0F5803F06D00CE0AA
:1025F0002149086850F40030086008E0022118F111
:10260000080000F077FB060001E001200600300022
:10261000C0B2002809D1DFF84022116831F48031BE
:10262000D8F850000143116000E03700D8E90001FC
:10263000800008D5022118F1280000F0E3FB0028F3
:1026400001D001200700D8E9000180032CD5D8F87B
:102650008000002816D0B0F5807F06D0B0F5007F4E
:102660000ED0B0F5407F0CD00DE00349086850F45F
:102670000030086009E000BF2C4402585044025862
:1026800003E002E001E0012006003000C0B20028B3
:1026900009D1DFF8D821116831F44071D8F88000F1
:1026A0000143116000E03700D8E90001C00208D5FD
:1026B000DFF8BC21116821F00041D8F87400014313
:1026C0001160D8E90001C00008D5DFF89821116831
:1026D00031F48041D8F8B80001431160D8E9000115
:1026E000800208D5DFF88821116831F08071D8F8B0
:1026F0006C0001431160D8E9000140000AD5DFF801
:102700006411086830F4004008600A68D8F8BC001A
:1027100002430A60D8E90001002807D54E4A116833
:1027200031F04051D8F8540001431160D8E900015C
:10273000000207D54D4A116831F44001D8F88C00E9
:1027400001431160D8E9000110F0000011F001010F
:10275000002901D100280AD0002118F1080000F05A
:10276000C9FA06003000C0B2002800D03700D8E90E
:10277000000110F0000011F00201002901D1002831
:102780000AD0012118F1080000F0B4FA0600300068
:10279000C0B2002800D03700D8E9000110F00000D6
:1027A00011F00401002901D100280AD0022118F1FA
:1027B000080000F09FFA06003000C0B2002800D0E8
:1027C0003700D8E9000110F0000011F008010029DD
:1027D00001D100280AD0002118F1280000F012FBD6
:1027E00006003000C0B2002800D03700D8E9000150
:1027F00010F0000011F01001002901D100280AD0CA
:10280000012118F1280000F0FDFA06003000C0B2E6
:10281000002800D03700D8E9000110F0000011F0C6
:102820002001002901D100280AD0022118F1280036
:1028300000F0E8FA06003000C0B2002800D03700EF
:102840003800C0B2002801D1002000E00120BDE81E
:10285000F2830000584402584C4402580048025881
:102860007044025810440258CFFFFF0054440258ED
:102870005044025880B500F005FEDFF89816DFF8E6
:1028800098261268C2F30212895C11F01F01C84039
:1028900002BD000030B485490A6812F003020968DD
:1028A000C1F30531824B1B68C3F30013DFF86C469C
:1028B0002468C4F3CC0404FB03F401EE104AB8EE20
:1028C000411A002900F0EA80002A03D0022A70D0C1
:1028D0004FD38EE0DFF804542C68A40629D5DFF826
:1028E00000442D68C5F3C105EC4001EE904AB0EEFE
:1028F000610AF8EE401A02EE101AB8EE422AC1EE52
:10290000821ADFF81C462468E405E40D02EE104A42
:10291000B8EE422ADFED672AC1EE222A72EE222AA1
:10292000B7EE002A32EE822A61EE821AF0EE610AD8
:102930001EE001EE901AB8EE612ADFED5F1AC1EEDB
:10294000821ADFF8DC452468E405E40D02EE104A43
:10295000B8EE422ADFED572AC1EE222A72EE222A71
:10296000B7EE002A32EE822A61EE821AF0EE610A98
:102970005EE001EE901AB8EE612ADFED501AC1EE6A
:10298000821ADFF89C452468E405E40D02EE104A43
:10299000B8EE422ADFED472AC1EE222A72EE222A41
:1029A000B7EE002A32EE822A61EE821AF0EE610A58
:1029B0003EE001EE901AB8EE612ADFED411AC1EE59
:1029C000821ADFF85C452468E405E40D02EE104A43
:1029D000B8EE422ADFED372AC1EE222A32EE222A51
:1029E000F7EE002A32EE222A61EE821AF0EE610A38
:1029F0001EE001EE901AB8EE612ADFED301AC1EE4A
:102A0000821ADFF81C452468E405E40D02EE104A42
:102A1000B8EE422ADFED272AC1EE222A32EE222A20
:102A2000F7EE002A32EE222A61EE821AF0EE610AF7
:102A3000DFF8EC442568C5F3462501EE905AB8EE60
:102A4000612AF7EE001A72EE211AC0EEA11AFCEE0E
:102A5000E11AC0ED001A2568C5F3064501EE905A4B
:102A6000F8EE611AB7EE002A71EE821AC0EEA11AD2
:102A7000FCEEE11AC0ED011A2468C4F3066401EE0D
:102A8000904AB8EE612AF7EE001A72EE211AC0EEF3
:102A9000A11AFCEEE11AC0ED021A05E00024046060
:102AA000002444600024846030BC704728440258ED
:102AB0002C440258000000460024744C0024744A40
:102AC00020BCBE4B30B4DFF85C140A6812F003027D
:102AD0000968C1F30551DFF850341B68C3F30023C4
:102AE000DFF848442468C4F3CC0404FB03F401EE8B
:102AF000104AB8EE411A002900F0E880002A03D0FD
:102B0000022A6ED04DD38CE0744D2C68A40628D5D3
:102B1000734C2D68C5F3C105EC4001EE904AB0EE50
:102B2000610AF8EE401A02EE101AB8EE422AC1EE1F
:102B3000821ADFF8FC432468E405E40D02EE104A33
:102B4000B8EE422ADFED672AC1EE222A72EE222A6F
:102B5000B7EE002A32EE822A61EE821AF0EE610AA6
:102B60001EE001EE901AB8EE612ADFED5F1AC1EEA9
:102B7000821ADFF8BC432468E405E40D02EE104A33
:102B8000B8EE422ADFED572AC1EE222A72EE222A3F
:102B9000B7EE002A32EE822A61EE821AF0EE610A66
:102BA0005EE001EE901AB8EE612ADFED501AC1EE38
:102BB000821ADFF87C432468E405E40D02EE104A33
:102BC000B8EE422ADFED472AC1EE222A72EE222A0F
:102BD000B7EE002A32EE822A61EE821AF0EE610A26
:102BE0003EE001EE901AB8EE612ADFED411AC1EE27
:102BF000821ADFF83C432468E405E40D02EE104A33
:102C0000B8EE422ADFED372AC1EE222A32EE222A1E
:102C1000F7EE002A32EE222A61EE821AF0EE610A05
:102C20001EE001EE901AB8EE612ADFED301AC1EE17
:102C3000821ADFF8FC422468E405E40D02EE104A33
:102C4000B8EE422ADFED272AC1EE222A32EE222AEE
:102C5000F7EE002A32EE222A61EE821AF0EE610AC5
:102C6000DFF8CC422568C5F3462501EE905AB8EE50
:102C7000612AF7EE001A72EE211AC0EEA11AFCEEDC
:102C8000E11AC0ED001A2568C5F3064501EE905A19
:102C9000F8EE611AB7EE002A71EE821AC0EEA11AA0
:102CA000FCEEE11AC0ED011A2468C4F3066401EEDB
:102CB000904AB8EE612AF7EE001A72EE211AC0EEC1
:102CC000A11AFCEEE11AC0ED021A05E0002404602E
:102CD000002444600024846030BC704700440258E3
:102CE0000090D003000000460024744C0024744A75
:102CF00020BCBE4B2DE9F84305000C000026DFF890
:102D00002492D9F8000010F00300032801D101201B
:102D100076E0884F386830F080603860FEF78CFFCE
:102D200080463868000107D5FEF786FFB0EB080043
:102D30000328F6D3032063E0D9F8001031F47C3186
:102D4000286851EA0031C9F800106868401EC005C3
:102D5000C00DA968491E490211F47E410843E96883
:102D6000491E090411F4FE0108432969491E090698
:102D700011F0FE4108436A4908606B490A6832F065
:102D8000C002686902430A600A6832F02002A8693A
:102D900002430A60086830F0100008605F4B186852
:102DA0006FF3CF00EA6950EAC2001860086850F07B
:102DB00010000860002C04D1086850F4002008605E
:102DC0000AE0012C04D1086850F48010086003E088
:102DD000086850F400100860386850F0806038606F
:102DE000FEF72AFF81463868000107D4FEF724FF6A
:102DF000B0EB09000328F6D3032001E03000C0B295
:102E0000BDE8F2832DE9F84305000C000026DFF849
:102E10001491D9F8000010F00300032801D101201B
:102E200076E0444F386830F080503860FEF704FF99
:102E300080463868800007D5FEF7FEFEB0EB08003C
:102E40000328F6D3032063E0D9F8001031F07C7139
:102E5000286851EA0051C9F800106868401EC00592
:102E6000C00DA968491E490211F47E410843E96872
:102E7000491E090411F4FE0108432969491E090687
:102E800011F0FE4108432A49086027490A6832F4D4
:102E90004062686902430A600A6832F40072A869F5
:102EA00002430A60086830F4807008601F4B18689D
:102EB0006FF3CF00EA6950EAC2001860086850F466
:102EC00080700860002C04D1086850F4800008600D
:102ED0000AE0012C04D1086850F40000086003E007
:102EE000086850F080700860386850F08050386092
:102EF000FEF7A2FE81463868800007D4FEF79CFEEC
:102F0000B0EB09000328F6D3032001E03000C0B283
:102F1000BDE8F283E8890008204402583C44025886
:102F200038440258284402582C4402584444025859
:102F300040440258004402582DE9F04104000E00BC
:102F4000002C01D101203DE1DFF8B475386810F0A4
:102F50000F00B0420BD238680009000130433860DE
:102F6000386810F00F00B04201D001202AE120782B
:102F700040070DD5DFF8A4150A6812F07002206929
:102F8000824205D20A6832F07002206902430A6068
:102F9000207800070DD5DFF888150A6812F0700256
:102FA0006069824205D20A6832F0700260690243A9
:102FB0000A602078C0060DD5DFF864150A6812F49F
:102FC000E062A069824205D20A6832F4E062A06938
:102FD00002430A60207880060DD5DFF848150A689C
:102FE00012F07002E069824205D20A6832F0700283
:102FF000E06902430A60207880070DD5DFF81C15D0
:103000000A6812F00F02E068824205D20A681209CB
:103010001201E06802430A602078C0074AD5DFF851
:10302000FC24116831F47061A0680143116060688C
:10303000022806D1DFF8CC04006880031CD40120EC
:10304000C0E06068032806D1DFF8B804006880019A
:1030500012D40120B6E06068012806D1DFF8A4048C
:103060000068C00508D40120ACE0DFF898040068CF
:10307000400701D40120A5E0DFF88C84D8F80010C7
:10308000C908C90060680143C8F80010FEF7D4FD04
:103090000500D8F8001011F038016068B1EBC00FDE
:1030A00008D0FEF7C9FD401B41F289318842F0D3B8
:1030B000032087E0207880070DD5DFF86014E268F0
:1030C000086810F00F00824205D20A681209120146
:1030D000E06802430A60386810F00F0086420BD2A5
:1030E00038680009000130433860386810F00F007C
:1030F000B04201D0012065E0207840070DD5DFF80F
:103100001C142269086810F07000824205D20A6817
:1031100032F07002206902430A60207800070DD562
:10312000DFF8FC136269086810F07000824205D273
:103130000A6832F07002606902430A602078C006B3
:103140000DD5DFF8DC13A269086810F4E060824254
:1031500005D20A6832F4E062A06902430A6020786E
:1031600080060DD5DFF8BC13E269086810F0700026
:10317000824205D20A6832F07002E06902430A60B6
:1031800000F074F80700DFF8B003DFF890130A6866
:10319000C2F30322825C12F01F02D740096811F0CB
:1031A0000F01415C11F01F013800C840DFF86413C3
:1031B0000860DFF85C030760DFF85C03006800F07C
:1031C000C7F9C0B2BDE8F08170B586B004000E004A
:1031D0001500002C23D1DFF86413086850F00100BB
:1031E0000860086810F00100059005984FF48070A1
:1031F0000090022001900320039000200290002004
:1032000004906946DFF8380300F0CEF9DFF8F812D1
:10321000086830F0FE7030432843086023E0DFF890
:103220001C13086850F004000860086810F00400DF
:10323000059005984FF40070009002200190032043
:10324000039000200290002004906946DFF8F40209
:1032500000F0AAF9DFF8B012086820F07E40304391
:1032600050EAC510086006B070BD000010B4DFF869
:103270009802006810F03800002806D0082813D003
:10328000102814D0182815D0F9E0DFF8784220680B
:10329000800606D5DFF874022468C4F3C104E04058
:1032A00001E0DFF86802EBE0DFF89C02E8E0DFF81D
:1032B0009C02E5E0DFF87042206810F00300020095
:1032C0002068C0F305100100DFF86002006810F00C
:1032D00001000300DFF85C020068C0F3CC0000FBD3
:1032E00003F002EE100AB8EE422AB0EE421A0029AC
:1032F00000F0C380002A03D0022A6FD04FD38CE0A5
:10330000DFF800422068800629D5DFF80002246833
:10331000C4F3C104E04002EE100AF0EE420AB8EE37
:10332000602A02EE901AF8EE622A82EE222ADFF874
:1033300000020068C005C00D02EE900AF8EE622A95
:103340009FED6B3A81EE033A32EE833AF7EE002AB4
:1033500073EE222A22EE222AF0EE421A1EE002EE3C
:10336000101AF8EE422A9FED632A82EE222ADFF835
:10337000C0010068C005C00D02EE900AF8EE622A96
:103380009FED5B3A81EE033A32EE833AF7EE002A84
:1033900073EE222A22EE222AF0EE421A5BE002EEBF
:1033A000101AB8EE422ADFED542A82EE822A6048D3
:1033B0000068C005C00D02EE900AF8EE622A9FED8B
:1033C0004C3A81EE033A32EE833AF7EE002A73EE7E
:1033D000222A22EE222AF0EE421A3CE002EE101AD5
:1033E000F8EE422A9FED452A82EE222A50480068D4
:1033F000C005C00D02EE900AF8EE622A9FED3C3A3D
:1034000081EE033A72EE832AB7EE003A72EE832A17
:1034100022EE222AF0EE421A1DE002EE101AB8EE59
:10342000422ADFED352A82EE822A41480068C00533
:10343000C00D02EE900AF8EE622A9FED2D3A81EE61
:10344000033A32EE833AF7EE002A73EE222A22EE96
:10345000222AF0EE421A36480068C0F34620401C8B
:1034600002EE100AB0EE420AB8EE402A81EE822A3D
:10347000BCEEC22A12EE100A00E0002000E0324842
:1034800010BC704780B5FFF7F1FE0100234B2A48BE
:103490001A68C2F30322825C12F01F02D1401D4A57
:1034A0001B6813F00F03C35C13F01F030800D84020
:1034B000106017480160106802BD80B5FFF7E2FF99
:1034C0001D49174A1268C2F30212895C11F01F01EC
:1034D000C84002BD80B5FFF7D5FF1749104A1268F2
:1034E000C2F30222895C11F01F01C84002BD000036
:1034F000000000460024744C0024744A20BCBE4BDB
:103500000020005200440258104402580090D0039A
:103510000400002008000020000000201844025889
:103520001C44025820440258284402582C44025893
:103530003044025834440258E8890008E0440258F4
:10354000000002580008025800093D0040787D0143
:1035500010B5040011490878002801D101201BE0B2
:103560004FF47A700978B0FBF1F00D490968B1FBAE
:10357000F0F000F009FA002801D001200CE0102C36
:1035800009D2002221005FF0FF3000F0E4F9054885
:103590000460002000E0012010BD00BF0C000020EE
:1035A0000400002000000020F8B503000026DFF82A
:1035B00074520868F040002800F00B810127D1F810
:1035C00000C017FA06F010EA0C0C6246002A00F060
:1035D000FE80087910F00300012804D0087910F06B
:1035E000030002281FD1D3F808C05FF0030E30009B
:1035F000C0B240001EFA00FE3CEA0E0CD1F80CE00E
:103600003000C0B240001EFA00FE5EEA0C0CC3F8A7
:1036100008C05868B740B8434F68C7F30017B740B1
:10362000384304005C60087910F00300032814D0CC
:10363000DF685FF0030C3000C0B240001CFA00FCF1
:1036400037EA0C07D1F808C03000C0B240001CFABD
:1036500000FC5CEA07073C00DC60087910F003001E
:1036600002281ED13000C00803EB8000076A5FF01B
:103670000F0C16F00700C0B280001CFA00FC37EAFD
:103680000C07D1F810C016F00700C0B280001CFA79
:1036900000FC5CEA07073C003000C00803EB800038
:1036A00004621F685FF0030C3000C0B240001CFAD7
:1036B00000FC37EA0C0791F804C01CF0030C300042
:1036C000C0B240001CFA00FC5CEA07073C001C602A
:1036D000486810F4403F7AD0DFF84C01076857F093
:1036E00002070760006810F0020000900098DFF801
:1036F0003C713000800857F820C05FF00F0E16F0C4
:103700000300C0B280001EFA00FE3CEA0E0CDFF897
:103710002001834201D100242DE04648834201D19B
:10372000012428E04448834201D1022423E0434895
:10373000834201D103241EE04148834201D1042485
:1037400019E04048834201D1052414E03E488342F9
:1037500001D106240FE03D48834201D107240AE04D
:103760003B48834201D1082405E03A48834201D115
:10377000092400E00A2416F00300C0B2800084404F
:1037800054EA0C0C3000800847F820C05FF0B044C9
:10379000206890434F68FF0200D5104320602E4CF4
:1037A00027689743D1F804C05FEA8C2C00D51743F3
:1037B0002760686890434C68A40300D51043686094
:1037C0002C6894434F68FF0300D514432C60761C8B
:1037D000EFE6F1BD02001369080080B2034201D098
:1037E000012000E00020C0B270471300DBB2002BC4
:1037F00003D00B009BB2836103E00B009BB21B0460
:103800008361704710B5040014480268210089B232
:103810000A4206D0210089B20160200080B200F087
:1038200019F910BD80000058F444025808040058EB
:10383000000002580004025800080258000C025808
:10384000001002580014025800180258001C0258B8
:103850000020025800240258040000588800005834
:1038600010B410F00702DFF8B8311C684FF6FF0102
:103870000C4054EA0224DFF8AC110C431C6010BC6D
:103880007047DFF89C010068C0F302207047000019
:10389000010009B2002909D4012210F01F018A4059
:1038A000614B010009B2490943F82120704710B467
:1038B000020012B2002A05D40C015C4B020012B2C5
:1038C0009C5408E00A015A4C03001BB213F00F038A
:1038D000234403F8042C10BC704770B4030013F0A9
:1038E0000704D4F10700052801D3042001E0D4F136
:1038F0000700251D072D01D2002600E0E61E012548
:1039000015FA00F0401E0140B14015FA06F6761E89
:1039100032401143080070BC704710B50400601EAF
:10392000B0F1807F01D301200EE0611E41480160AB
:103930000F215FF0FF30FFF7BAFF00213E48016022
:1039400007213E480160002010BD10B50400200092
:10395000FFF786FF10BDF8B507000C001500FFF754
:1039600090FF06002A0021003000FFF7B6FF01009B
:10397000380000B2FFF79BFFF1BD10B50400200036
:1039800000B2FFF785FF10BD10B504002000FFF75F
:10399000C4FF10BDBFF35F8F2949086830F4803041
:1039A0000860002127480160704750F00102254956
:1039B0000A60234A116851F480311160BFF34F8FC0
:1039C000BFF36F8F704742781F490A600178002962
:1039D0001ED042681D490A60017BC27A120652EA73
:1039E0000172817A52EAC142417B52EA8142817B73
:1039F00052EA4142C17B52EA0142417A52EA012233
:103A0000017A52EA410201780A4311490A6005E04D
:103A100000220E490A6000220D490A60704700002A
:103A20000CED00E00000FA0500E100E000E400E039
:103A300018ED00E014E000E018E000E010E000E025
:103A400024ED00E094ED00E098ED00E09CED00E056
:103A5000A0ED00E010B504000A2000F015F8802168
:103A60000448FFF7B7FE012802D101210248017086
:103A700010BD00BF0000025889A4002071490868E9
:103A800050F010000860704741F26F726E490A6092
:103A9000020092B228214A436C490A606C4A1168BC
:103AA00051F0010111606B4900220A606A4A1368F3
:103AB00053F008031360136853F0010313600A689E
:103AC000D207FCD50A68520852000A60704718B540
:103AD00087B01021002203A800F0CAF80C210022B0
:103AE000684600F0C5F85D4C5D48206017206060B6
:103AF0000020A06042F21070E060002020610020F1
:103B0000A061200000F0FCF8002801D001F0B6F818
:103B10004FF48050039003A9200000F05BFC0028C4
:103B200001D001F0ABF8200000F027F9002801D007
:103B300001F0A4F8002000900020029069462000C7
:103B400001F063F9002801D001F098F8200000F09E
:103B500067F808B010BD1FB50C210022684600F0C0
:103B600087F8404C40482060002060600020A06042
:103B70004FF6FF70E0600020A061200000F0C0F868
:103B8000002801D001F07AF80821200000F06CFA3A
:103B9000002801D001F072F800200090002002906F
:103BA0006946200001F031F9002801D001F066F8E3
:103BB0001FBD1CB504002168294881420AD1214952
:103BC000086850F008000860086810F008000090CD
:103BD000009824E021682048814212D119490868E0
:103BE00050F010000860086810F010000090009875
:103BF000002202213620FFF7AEFE3620FFF7BDFE81
:103C00000DE021681848814209D10E49086850F03A
:103C100020000860086810F020000090009813BD94
:103C200081B002680E498A4209D1104A116851F0E8
:103C300001011160116811F001010091009901B0BA
:103C400070470000E8440258281000402C10004043
:103C5000141000401010004000100040A4A30020E9
:103C6000000C0040F0A3002000140040E044025883
:103C700062F30F2262F31F42401810F0030308D0D2
:103C8000C91A1FD3DB0748BF00F8012D28BF20F851
:103C9000022D130030B414461546103928BF20E910
:103CA0003C00FAD8490728BF20E90C0048BF40F87B
:103CB000042D890028BF20F8022D48BF00F8012DEF
:103CC00030BC7047C91818BF00F8012DCB0728BFBA
:103CD00000F8012D70470EE0026843680244083086
:103CE0005FEAC37C44BF4B445B1E52F804CB43F8ED
:103CF00004CB091FF9D150F8041B0029ECD17047FF
:103D000010B50400002C01D1012035E094F83D00ED
:103D1000002805D1002084F83C002000FFF749FF6F
:103D2000022084F83D00211D206800F0E0FB012006
:103D300084F84800012084F83E00012084F83F0008
:103D4000012084F84000012084F84100012084F81B
:103D50004200012084F84300012084F8440001203F
:103D600084F84500012084F84600012084F84700CB
:103D7000012084F83D00002010BD10B50400002C87
:103D800001D1012035E094F83D00002805D1002044
:103D900084F83C00200001F0ACF8022084F83D00DB
:103DA000211D206800F0A3FB012084F848000120B9
:103DB00084F83E00012084F83F00012084F8400090
:103DC000012084F84100012084F84200012084F899
:103DD0004300012084F84400012084F845000120BC
:103DE00084F84600012084F84700012084F83D0053
:103DF000002010BD70B505000C00002C02D195F814
:103E00003E0015E0042C02D195F83F0010E0082C8C
:103E100002D195F840000BE00C2C02D195F841003E
:103E200006E0102C02D195F8420001E095F843001D
:103E3000012801D001208EE0002C04D1022085F859
:103E40003E00C0B21FE0042C04D1022085F83F00E0
:103E5000C0B218E0082C04D1022085F84000C0B29E
:103E600011E00C2C04D1022085F84100C0B20AE018
:103E7000102C04D1022085F84200C0B203E00220D9
:103E800085F84300C0B201222100286800F059FDE6
:103E9000DFF8AC012968814213D02A68DFF8A41149
:103EA0008A420ED02A68DFF8A0118A4209D02A6817
:103EB000DFF8AC118A4204D02A68DFF8A0118A42E8
:103EC00001D1012100E00021C9B2002905D02968F3
:103ED000496C51F400412A6851642968814221D01B
:103EE0002868B0F1804F1DD02968DFF86001814259
:103EF00018D02868DFF85811884213D02968DFF8F5
:103F0000540181420ED02868DFF83811884209D068
:103F10002968DFF84401814204D02968DFF82801CC
:103F2000814211D128688168DFF8380101400E0014
:103F3000062E0FD0B6F5803F0CD02868016851F0EE
:103F400001012868016005E02868016851F001015D
:103F500028680160002070BD38B505000C00002203
:103F60002100286800F0EDFC2868DFF8D4108842B2
:103F700013D02968DFF8CC0081420ED02968DFF821
:103F8000C800814209D02968DFF8D400814204D0FA
:103F90002968DFF8C800814201D1012000E000203B
:103FA000C0B2002811D02868016A41F21110014204
:103FB0000BD12868016A40F24440014205D12868CB
:103FC000416C31F40041286841642868016A41F27B
:103FD000111001420BD12868016A40F244400142AD
:103FE00005D1286801684908490028680160002C4B
:103FF00004D1012085F83E00C0B21FE0042C04D19A
:10400000012085F83F00C0B218E0082C04D101203F
:1040100085F84000C0B211E00C2C04D1012085F8D5
:104020004100C0B20AE0102C04D1012085F8420002
:10403000C0B203E0012085F84300C0B2002032BDC9
:104040000000014000040140004001400004004025
:1040500000080040000C00400018004000480140EB
:10406000004401400700010038B504000D00002C99
:1040700001D1012032E094F83D00002805D1002054
:1040800084F83C00200000F035FF022084F83D0059
:10409000211D206800F02BFA2068016831F008012A
:1040A00020680160206801682943206801600120C0
:1040B00084F84800012084F83E00C0B2012084F852
:1040C0003F00C0B2012084F84400C0B2012084F84F
:1040D0004500C0B2012084F83D00002032BD10B57B
:1040E00004002068006980071AD52068C06880072E
:1040F00016D57FF002012068016101202077206839
:10410000806910F0030F03D0200000F0F4FE05E0FA
:10411000200000F0F1FE200000F0EFFE00202077EC
:104120002068006940071AD52068C068400716D586
:104130007FF00401206801610220207720688069F7
:1041400010F4407F03D0200000F0D5FE05E02000F1
:1041500000F0D2FE200000F0D0FE00202077206882
:10416000006900071AD52068C068000716D57FF0DF
:10417000080021680861042020772068C06910F0D9
:10418000030F03D0200000F0B6FE05E0200000F091
:10419000B3FE200000F0B1FE002020772068006907
:1041A000C0061AD52068C068C00616D57FF010007A
:1041B00021680861082020772068C06910F4407FDA
:1041C00003D0200000F097FE05E0200000F094FEF0
:1041D000200000F092FE0020207720680069C007D0
:1041E0000AD52068C068C00706D57FF001012068A5
:1041F0000161200000F082FE2068006900060AD5F7
:104200002068C068000606D57FF080012068016143
:10421000200000F074FE20680069C0050AD52068FF
:10422000C068000606D57FF4807120680161200017
:1042300000F066FE2068006940060AD52068C06864
:10424000400606D57FF0400120680161200000F0A3
:1042500058FE2068006980060AD52068C06880067C
:1042600006D57FF0200120680161200000F04AFEA1
:1042700010BDF8B504000D001600002794F83C00AE
:10428000012801D10220A4E0012084F83C00300084
:1042900000280AD004281FD0082835D00C284AD07E
:1042A000102860D0142875D08CE02900206800F018
:1042B00083F92068816951F00801206881612068D4
:1042C000816931F004012068816120688169286971
:1042D00001432068816177E02900206800F0BCF983
:1042E0002068816951F400612068816120688169DA
:1042F00031F480612068816120688069296950EA11
:104300000120216888615FE02900206800F0ECF955
:104310002068C16951F008012068C1612068C16945
:1043200031F004012068C1612068C1692869014336
:104330002068C16148E02900206800F01BFA20686D
:10434000C16951F400612068C1612068C06930F41E
:1043500080602168C8612068C069296950EA01202D
:104360002168C86130E02900206800F038FA206830
:10437000416D51F00801206841652068406D30F0C2
:104380000400216848652068416D28690143206860
:10439000416519E02900206800F04EFA2068416D5F
:1043A00051F40061206841652068416D31F48061FD
:1043B000206841652068406D296950EA0120216824
:1043C000486501E001200700002084F83C00380027
:1043D000C0B2F2BDF8B504000D00002694F83C0010
:1043E000012801D1022081E0012084F83C00022054
:1043F00084F83D0020688768DFF89804074037F4A8
:104400007F47206887602968002960D010295ED026
:1044100020295CD030295AD040294ED0502938D09C
:10442000602940D0702919D0B1F5805F15D0B1F561
:10443000005F21D0B1F5801F49D0B1F1101F46D0E7
:10444000DFF8B004814242D0DFF8AC0481423ED0B4
:10445000DFF8A80481423AD03EE03FE0EB686A68AA
:10446000A968206800F062FA2068806850F0770040
:1044700007002068876031E0EB686A68A9682068F7
:1044800000F054FA2068816851F48041206881600E
:1044900024E0EA686968206800F0FEF9502120688D
:1044A00000F01FFA1AE0EA686968206800F006FA6E
:1044B0006021206800F015FA10E0EA686968206859
:1044C00000F0EAF94021206800F00BFA06E02968C4
:1044D000206800F006FA01E001200600012084F8BF
:1044E0003D00002084F83C003000C0B2F2BD10B4A2
:1044F0000468DFF80C34984212D0B0F1804F0FD02E
:10450000DFF8002490420BD0DFF8FC23904207D064
:10451000DFF8F823904203D0DFF8F423904204D16F
:1045200034F0700422004C68144398421ED0B0F15D
:10453000804F1BD0DFF8CC23904217D0DFF8C82380
:10454000904213D0DFF8C42390420FD0DFF8C0238D
:1045500090420BD0DFF8BC23904207D0DFF8B8239D
:10456000904203D0DFF8B423904204D134F4407475
:104570002200CC68144334F080044A691443046078
:104580008A68C2620A68826298420FD0DFF880238C
:1045900090420BD0DFF87C23904207D0DFF87823DD
:1045A000904203D0DFF87423904201D10A6902637C
:1045B0000122426110BC704770B4026A5208520076
:1045C0000262056A43688469DFF854231440A40832
:1045D000A4000A68144335F002058A681543DFF821
:1045E0002063B0420FD0DFF8282390420BD0DFF8D1
:1045F0002423904207D0DFF82023904203D0DFF835
:104600001C23904205D135F00805CA68154335F0E2
:104610000405B0420FD0DFF8F82290420BD0DFF84B
:10462000F422904207D0DFF8F022904203D0DFF866
:10463000EC22904208D133F4807333F400734A695A
:1046400013431A008B691343436084614A684263D1
:10465000056270BC7047000070B4026A32F010024C
:104660000262056A43688469DFF8B822144034F4B2
:1046700040740A6854EA022435F020058A6855EA35
:104680000215DFF87C22904203D0DFF88462B0424A
:1046900006D135F08005CE6855EA061535F040059F
:1046A00090420FD0DFF8682290420BD0DFF86422EE
:1046B000904207D0DFF86022904203D0DFF85C22FE
:1046C000904209D133F4806333F400634A6953EABA
:1046D00082038A6953EA8203436084614A68826381
:1046E000056270BC7047000070B4026A32F48072D8
:1046F0000262056A4368C469DFF824221440A408F2
:10470000A4000A68144335F400758A6855EA022546
:10471000DFF8EC21904203D0DFF8F461B04206D11B
:1047200035F40065CE6855EA062535F4806590427B
:104730000FD0DFF8DC2190420BD0DFF8D821904277
:1047400007D0DFF8D421904203D0DFF8D021904287
:1047500009D133F4805333F400534A6953EA021306
:104760008A6953EA02134360C4614A68C2630562FE
:1047700070BC704730B4026A32F480520262056A3B
:104780004368C469DFF89C21144034F440740A681B
:1047900054EA022435F400558A6855EA0235DFF8F8
:1047A000602190420FD0DFF8682190420BD0DFF8F3
:1047B0006421904207D0DFF86021904203D0DFF8F7
:1047C0005C21904204D133F480434A6953EA821356
:1047D0004360C4614A680264056230BC704730B40B
:1047E000026A32F480320262056A4368446DDFF87F
:1047F000302114400A68144335F400358A6855EABC
:1048000002453F4A90420BD0414A904208D0414A6B
:10481000904205D0404A904202D0404A904204D192
:1048200033F480334A6953EA0223436044654A689B
:104830008265056230BC704730B4026A32F480127F
:104840000262056A4368446D364A14400A6854EAB5
:10485000022435F400158A6855EA0255284A904228
:104860000BD02B4A904208D02A4A904205D02A4ABF
:10487000904202D0294A904204D133F480234A69FD
:1048800053EA8223436044654A68C265056230BCCE
:104890007047000088FFCEFF10B4036A046A640802
:1048A00064000462846934F0F00454EA021433F0C2
:1048B0000A030B438461036210BC704710B4036A9F
:1048C00033F0100303628469036A34F4704454EAD9
:1048D000023433F0A00353EA01138461036210BC75
:1048E00070478368104A13400B4353F007038360FB
:1048F0007047000020001000300010004000100041
:10490000000001400004004000080040000C00408E
:1049100000040140004001400044014000480140C3
:104920008FFFFEFFFF8FFFFE8FFFCFFF10B4846865
:1049300034F47F440C43144354EA0324846010BCD1
:10494000704730B4012411F01F039C40036AA34355
:104950000362056A11F01F0312FA03F31D43056297
:1049600030BC7047F8B500F059F900F0CDFA00F00E
:1049700066F800F0FCF800F001FB00F0D9FB00F055
:10498000EDFB00F017FC00F08FFC00F013FD00F0D1
:10499000BDFD00F0F3FD00F02BFEFFF798F8FFF7E8
:1049A0006DF8FFF7D8F800F01DFF00F095FF00202C
:1049B00001F086F801F026F98F4C4FF420420021D7
:1049C000200001F053FA7F239F220021002001F0F4
:1049D000F2F88A4D41F2883633004FF4204221002C
:1049E000280001F070FB642001F06AF88448017827
:1049F0000129FBD100210170322002F047F8814FDC
:104A00003878042801DB002038704FF420423978D0
:104A10004FF420404143200001F028FA7F239F22D9
:104A20000021002001F0C7F833004FF4204221009C
:104A3000280001F048FB3878401C3870D6E780B574
:104A40009CB04C21002209A8FFF712F92021002276
:104A500001A8FFF70DF9022002F062F80020009093
:104A600069480168490849000160016811F00101C5
:104A7000009166490A6852F440420A600A6812F4DA
:104A800040420092009A0A689204FCD5604B1A6872
:104A900052F002021A601A6812F002020092009AA2
:104AA000002200920A6852F440420A600A6812F436
:104AB00040420092026852F001020260006810F069
:104AC00001000090009808688004FCD502F054F8BA
:104AD00000F045FA4F49086830F0180008602D20B2
:104AE00009905FF480300A9001200B9001200E9015
:104AF00001200F90022012900220139006201490A3
:104B0000F020159002201690022017900220189095
:104B10000820199000201A9000201B9009A802F08C
:104B200033F8002801D000F0A9F83F2001900320BD
:104B3000029000200390082004904020059040201F
:104B400006904FF48060079040200890042101A84F
:104B5000FEF7F2F9002801D000F090F85FF480220F
:104B60005FF400010020FEF72FFB1DB000BD80B5F3
:104B7000B0B0C02100226846FFF77AF8264800212D
:104B8000CDE90001062002906420039002200490E9
:104B900004200590022006908020079000200890B5
:104BA0000020099004200A9096200B9006200C907B
:104BB0000F200D900A200E904FF400600F900020FF
:104BC0001090002011905FF4803014908021179194
:104BD0004FF4805118915FF000511C915FF4001167
:104BE000229129906846FDF72DF8002801D000F0A9
:104BF00045F831B000BD0000100000202CA10020BD
:104C000089A4002088A400202C04005818480258C9
:104C1000F44402587044025800920D00F8B5102177
:104C200000226846FFF724F8FEF7B4FE01208DF855
:104C3000000000208DF80100002001901F208DF859
:104C4000080087208DF8090000208DF80A00002058
:104C50008DF80B0001208DF80C0001208DF80D005F
:104C600000208DF80E0000208DF80F006846FEF73A
:104C7000AAFE0420FEF799FE05B000BD72B6FEE75D
:104C800070B505000C00002C02D195F844000BE033
:104C9000042C02D195F8450006E0082C02D195F8C5
:104CA000460001E095F84700012801D0012062E0AC
:104CB000002C04D1022085F84400C0B211E0042C7D
:104CC00004D1022085F84500C0B20AE0082C04D1C6
:104CD000022085F84600C0B203E0022085F84700B4
:104CE000C0B204222100286800F0F2F82868416C64
:104CF00051F40041286841642968DFF8B801814215
:104D000021D02868B0F1804F1DD02968DFF8A801B4
:104D1000814218D02968DFF8A401814213D02968A4
:104D2000DFF89C0181420ED02968DFF898018142AA
:104D300009D02968DFF89001814204D02968DFF8A2
:104D40008C01814210D1286881680C4801400E0016
:104D5000062E0FD0B6F5803F0CD02868016851F0C0
:104D600001012868016005E02868016851F001012F
:104D700028680160002070BD0000000007000100ED
:104D800038B505000C0000222100286800F0A0F8CA
:104D900041F211102968096A01420BD129680A6A97
:104DA00040F244410A4205D129684A6C32F400427B
:104DB00029684A642968096A01420BD12868016A96
:104DC00040F24440014205D1286801684908490081
:104DD00028680160002C04D1012085F84400C0B28D
:104DE00011E0042C04D1012085F84500C0B20AE08E
:104DF000082C04D1012085F84600C0B203E0012050
:104E000085F84700C0B2002032BD70B4020092F8AD
:104E10003C00012801D1022049E0012082F83C0039
:104E2000022082F83D001068436810688468214DB4
:104E30001068A84203D016682248864204D133F491
:104E4000700318004B68034333F070030868034392
:104E5000106843601068A8421BD01068B0F1804F02
:104E600017D015681448854213D015681348854239
:104E70000FD01568124885420BD01568114885423D
:104E800007D015681048854203D015680F48854241
:104E900006D134F0800420008C68044310688460DC
:104EA000012082F83D00002082F83C00002070BC08
:104EB000704700000000014000040040000800406E
:104EC000000C004000040140001800400040014078
:104ED00030B4042411F01F039C40036AA34303620F
:104EE000056A11F01F0312FA03F31D43056230BC7B
:104EF00070477047704770477047704770477047FA
:104F0000704770477047000010B50320FEF71DFD85
:104F1000FEF7ACF90400DFF85000DFF8501002682B
:104F2000C2F303228A5C12F01F02D440006810F022
:104F30000F00095C11F01F012000C840DFF830109D
:104F40000860DFF8300004600F20FEF701FB002846
:104F500001D0012002E002F093F9002010BDDFF83B
:104F600018000068000C704718440258E8890008CF
:104F700008000020040000200010005C2DE9F04132
:104F800086B0142100226846FEF772FE624801686E
:104F900051F010010160016811F0100105910599AF
:104FA000016851F004010160016811F004010591EC
:104FB0000599016851F080010160016811F08001DC
:104FC00005910599016851F001010160016811F036
:104FD000010105910599016851F002010160016824
:104FE00011F0020105910599016851F00801016075
:104FF000006810F0080005900598DFF82081002275
:105000004FF400514046FEF7F0FB454C00224FF4B0
:1050100080412000FEF7E9FB424D00224FF4806101
:105020002800FEF7E2FB404E00224FF40041300022
:10503000FEF7DBFB002201213000FEF7D6FB3B4FE1
:1050400001224FF400613800FEF7CFFB4FF400500F
:1050500000900120019000200290002003906946FA
:105060004046FEF7A1FA4FF48040009001200190E5
:10507000002002900320039069462000FEF794FA76
:105080004FF48060009001200190002002900020E9
:10509000039069462800FEF787FA4FF4807000906D
:1050A0000220019000200290002003900020049034
:1050B00069463000FEF778FA4FF400400090012076
:1050C0000190002002900020039069463000FEF716
:1050D0006BFA4FF4006000900120019001200290D3
:1050E0000320039069463800FEF75EFA80200090A6
:1050F0005FF4881001900220029069463000FEF7AC
:1051000053FA002205211720FEF725FC1720FEF791
:1051100034FC06B0BDE8F081E044025800080258B3
:1051200000040258000C02580000025800100258F7
:1051300080B50949086850F001000860086810F05F
:10514000010000900098002205210B20FEF703FCCF
:105150000B20FEF712FC01BDD844025880B512485E
:10516000124901600021017100214171002141615A
:10517000002181610121016202F092F8002801D032
:10518000FFF77CFD01BD81B0026808498A4209D160
:10519000074A116851F400211160116811F40021CF
:1051A0000091009901B070473CA40020004C0258C7
:1051B000E044025810B586B01421002201A8FEF781
:1051C00057FD042100226846FEF752FD334C344857
:1051D0002060002060607F20A060FF20E060002051
:1051E00020610020A0610020E061002060612000BB
:1051F00002F09EF8002801D0FFF740FD12208DF844
:10520000040050208DF8050000208DF806000020D5
:10521000049000200590012201A9200002F0E9F885
:10522000002801D0FFF72AFD06208DF80000062097
:105230008DF8010008208DF8020024208DF803006D
:1052400001226946200002F059F9002801D0FFF739
:1052500015FD06B010BD10B5B0B00400C02100228D
:105260006846FEF705FD21680D48814213D15FF4C1
:1052700080000021CDE900014FF480702D90684638
:10528000FCF7E0FC002801D0FFF7F8FC05490868AE
:1052900050F40040086030B010BD000060A4002051
:1052A000004000587044025810B53D4C3D48206005
:1052B0005FF4E13060600020A0600020E06000202A
:1052C00020610C2060610020A0610020E0610020CE
:1052D0002062002060620020A062200002F0FEF93F
:1052E000002801D0FFF7CAFC0021200002F093FE45
:1052F000002801D0FFF7C2FC0021200002F0B6FE1A
:10530000002801D0FFF7BAFC200002F061FE00285F
:1053100001D0FFF7B3FC10BD10B5B6B004001421E6
:10532000002201A8FEF7A4FCC021002206A8FEF777
:105330009FFC21681B4881422FD101200021CDE92B
:1053400006010020259006A8FCF77CFC002801D06F
:10535000FFF794FC1449086850F0100008600868D2
:1053600010F01000009000981049086850F00100FB
:105370000860086810F00100009000984FF4C060C9
:10538000019002200290002003900020049007204A
:10539000059001A90648FEF707F936B010BD0000D8
:1053A00010A0002000100140F0440258E0440258D0
:1053B0000000025880B54E484E490160022141600C
:1053C000082181601021C160172101614FF44071F3
:1053D0004161002181610021C1610021016202F06F
:1053E000AFFE002801D0FFF749FC01BD38B5B6B0CB
:1053F0000500142100226846FEF73AFCC021002275
:1054000006A8FEF735FC29683A4881426DD15FF065
:1054100000700021CDE906010020199006A8FCF7D4
:1054200011FC002801D0FFF729FC3349086850F42B
:1054300080400860086810F48040059005982F4867
:10544000016851F010010160016811F0100105912F
:105450000599016851F002010160016811F0020133
:1054600005910599016851F008010160006810F08C
:10547000080005900598042000900220019000206B
:105480000290032003900920049069461C48FEF70F
:105490008BF804200090022001900020029003204D
:1054A000039009200490174C69462000FEF77CF811
:1054B0004FF46050009002200190002002900320E1
:1054C00003900920049069460F48FEF76DF84020CC
:1054D00000900220019000200290032003900A20F7
:1054E000049069462000FEF75FF837B030BD000039
:1054F00058A3002000500052D4440258E0440258FF
:105500000010025800040258000C025880B5AA4846
:10551000AA4901605FF48001416000218160072198
:10552000C16000210161002141615FF08061816102
:105530005FF00051C1610021016200214162002140
:1055400081620021C1620021416300218163002149
:10555000C1630021016400214164002181640021B4
:10556000C16400210165002141650021816500F0D1
:10557000D7FC002801D0FFF781FB01BD80B5904822
:10558000904901605FF4800141605FF40031816007
:105590000721C1605FF0007101615FF080714161BE
:1055A0005FF0005181610021C16100210162002191
:1055B0004162002181620021C1620021416300211A
:1055C00081630021C1630021016400214164002145
:1055D00081640021C1640021016500214165002131
:1055E000816500F09DFC002801D0FFF747FB01BD5D
:1055F00080B57548754901605FF480014160002104
:1056000081600721C16000210161002141615FF0DB
:10561000806181615FF08051C161002101620021E0
:105620004162002181620021C162002141630021A9
:1056300081630021C16300210164002141640021D4
:1056400081640021C16400210165002141650021C0
:10565000816500F065FC002801D0FFF70FFB01BD5C
:1056600038B5B6B00400142100226846FEF700FBEE
:10567000C021002206A8FEF7FBFA21684F488142AC
:105680002AD15349086850F480500860086810F423
:105690008050059005984F49086850F00200086056
:1056A000086810F00200059005983820009002204C
:1056B0000190002002900320039005200490694689
:1056C0004548FDF771FF002205212320FEF743F92D
:1056D0002320FEF752F96CE021683A48814233D129
:1056E0003E49086850F480400860086810F4804023
:1056F000059005983749086850F00200086008686E
:1057000010F00200059005984FF4805000900220A0
:1057100001900220029003200390052004902E4D5A
:1057200069462800FDF740FF4FF42040009002201A
:105730000190012002900320039005200490694607
:105740002800FDF731FF34E021682048814230D144
:105750004FF400500021CDE9060100201F9006A85B
:10576000FCF770FA002801D0FFF788FA184908689A
:1057700050F400500860086810F400500590059837
:105780001449086850F010000860086810F0100014
:10579000059005984FF4E040009002200190002011
:1057A0000290032003900520049069460C48FDF701
:1057B000FBFE37B030BD0000A4A000200030014047
:1057C0002CA1002000380040B4A10020003401408A
:1057D000F0440258E044025800040258E8440258D9
:1057E0000010025810B5364C3648206036486060CC
:1057F0000020A0600120E0600020206100206061A6
:105800000020A0610020E06100202062200002F062
:105810001DFD002801D0FFF731FA0021200002F021
:105820007BFD002801D0FFF729FA0021200002F0BB
:10583000A5FD002801D0FFF721FA10BD10B5B6B0C4
:1058400004001421002201A8FEF712FAC021002250
:1058500006A8FEF70DFA21681A4881422ED10820C9
:105860000021CDE906010020279006A8FCF7EAF9FF
:10587000002801D0FFF702FA1449086850F002002E
:105880000860086810F0020000900098C0200190A5
:105890001220029000200390002004900420059024
:1058A00001A90B48FDF780FE0A49086850F4001072
:1058B0000860086810F400100090009836B010BD21
:1058C000B4A2002000540040B1757030E04402588A
:1058D00000040258E844025880B56E486E490160E1
:1058E00000214160202181600021C160002101610F
:1058F000002141610021816100210162002141629A
:10590000002181620021C1620021016302F068FD73
:10591000002801D0FFF7B2F901BD38B586B0040008
:10592000142100226846FEF7A3F921685A488142F3
:1059300040F0AE805949086850F0010008600868DE
:1059400010F00100059005985548016851F01001CC
:105950000160016811F0100105910599016851F08D
:1059600001010160016811F00101059105990168CB
:1059700051F004010160016811F0040105910599DD
:10598000016851F008010160016811F008010591FA
:105990000599016851F002010160006810F00200F1
:1059A000059005987320009002200190002002903D
:1059B000002003900D20049069463A48FDF7F4FD5D
:1059C00050200090022001900020029000200390BF
:1059D0000D20049069463448FDF7E6FDC020009094
:1059E0000220019000200290002003900D200490DE
:1059F00069462E48FDF7D8FD08200090022001904E
:105A000000200290002003900D2004906946284851
:105A1000FDF7CAFD80200090022001900020029036
:105A2000002003900D20049069462248FDF7BCFD3C
:105A3000214D224828604B2068600020A86000208B
:105A4000E8604FF4806028614FF4805068614FF443
:105A50008040A8614FF48070E86100202862042033
:105A600068620320A8620020E86200202863280002
:105A7000FAF712FC002801D0FFF700F9A564AC6327
:105A8000002205214E20FDF766FF4E20FDF775FF31
:105A900007B030BD08A3002000000248DC440258D3
:105AA000E044025800100258000002580008025852
:105AB000000C0258000402583CA2002010000240D2
:105AC00038B58CB005001C21002205A8FEF7D0F8DF
:105AD000142100226846FEF7CBF8DFF87C43002152
